:100000000C9461000C949F010C94CC010C947E0024
:100010000C947E000C947E000C947E000C947E0068
:100020000C947E000C947E000C947E000C94BE0018
:100030000C947E000C947E000C947E000C947E0048
:100040000C94F9010C947E000C947E000C947E00BC
:100050000C947E000C947E000C947E000C947E0028
:100060000C947E000C947E00000000002400270009
:100070002A0000000000250028002B0000000000DE
:1000800023002600290004040404040404040202DA
:100090000202020203030303030301020408102007
:1000A0004080010204081020010204081020000012
:1000B0000007000201000003040600000000000029
:1000C000000011241FBECFEFD8E0DEBFCDBF11E08E
:1000D000A0E0B1E0E2EFF6E002C005900D92A030A2
:1000E000B107D9F711E0A0E0B1E001C01D92A4333F
:1000F000B107E1F70E9468030C9477030C940000A9
:1001000069B170E083E0759567958A95E1F7617054
:1001100083E10E94140382E1609100010E941403B4
:100120008091000191E0892780930001089560E5A6
:1001300070E080E090E00E944102089582E060E07B
:100140000E94D50282E060E00E94140383E060E038
:100150000E94D50283E060E00E94140380E060E822
:1001600070E043E050E00E947C0182E161E00E9487
:10017000D50283E161E00E94D50208951F920F929B
:100180000FB60F9211242F933F934F935F936F936A
:100190007F938F939F93AF93BF93EF93FF93809140
:1001A000260187FF05C010928500109284002BC0A5
:1001B00020912601332727FD30958091010190E0A1
:1001C0002817390704F580912601992787FD909516
:1001D000FC01EE0FFF1FE80FF91FEE5FFE4F80815D
:1001E00086FF11C080912601992787FD9095FC011B
:1001F000EE0FFF1FE80FF91FEE5FFE4F80818F7338
:1002000060E00E941403809126018F5F8093260195
:1002100020912601332727FD30958091010190E040
:10022000281739070CF04EC0809126018C300CF055
:1002300049C0209184003091850080912601992742
:1002400087FD9095FC01EE0FFF1FE80FF91FEE5F91
:10025000FE4F81819281280F391F309389002093AE
:10026000880080912601992787FD9095FC01EE0F6B
:10027000FF1FE80FF91FEE5FFE4F808186FF2BC046
:1002800080912601992787FD9095FC01EE0FFF1FB5
:10029000E80FF91FEE5FFE4F80818F7361E00E94CF
:1002A000140319C080E49CE905C0809184009091FA
:1002B0008500049690938900809388008FEF809347
:1002C000260109C080918400909185000496805495
:1002D0009C4940F3EACFFF91EF91BF91AF919F917D
:1002E0008F917F916F915F914F913F912F910F90DF
:1002F0000FBE0F901F901895823000F5E82FF0E0A8
:10030000EE0FFF1FE95DFE4F71836083882319F0B4
:100310008130A1F408C0809169008C7F842B809388
:100320006900E89A089580916900440F551F440FB1
:10033000551F837F842B80936900E99A08951F924B
:100340000F920FB60F9211242F933F934F935F9309
:100350006F937F938F939F93AF93BF93EF93FF938D
:100360008091270190912801892B29F0E0912701A4
:10037000F09128010995FF91EF91BF91AF919F9165
:100380008F917F916F915F914F913F912F910F903E
:100390000FBE0F901F9018951F920F920FB60F92DD
:1003A00011242F933F934F935F936F937F938F937A
:1003B0009F93AF93BF93EF93FF9380912901909107
:1003C0002A01892B29F0E0912901F0912A01099550
:1003D000FF91EF91BF91AF919F918F917F916F911D
:1003E0005F914F913F912F910F900FBE0F901F90F3
:1003F00018951F920F920FB60F9211242F933F93CF
:100400008F939F93AF93BF9380912F019091300171
:10041000A0913101B0913201309133010196A11DBB
:10042000B11D232F2D5F2D3720F02D570196A11DD3
:10043000B11D2093330180932F0190933001A0933D
:100440003101B093320180912B0190912C01A09148
:100450002D01B0912E010196A11DB11D80932B019C
:1004600090932C01A0932D01B0932E01BF91AF91D9
:100470009F918F913F912F910F900FBE0F901F90E2
:1004800018959B01AC017FB7F89480912B01909156
:100490002C01A0912D01B0912E0166B5A89B05C03D
:1004A0006F3F19F00196A11DB11D7FBFBA2FA92F73
:1004B000982F8827860F911DA11DB11D62E0880F1E
:1004C000991FAA1FBB1F6A95D1F7BC012DC0FFB7AA
:1004D000F89480912B0190912C01A0912D01B09165
:1004E0002E01E6B5A89B05C0EF3F19F00196A11DAE
:1004F000B11DFFBFBA2FA92F982F88278E0F911DEE
:10050000A11DB11DE2E0880F991FAA1FBB1FEA952C
:10051000D1F7861B970B885E9340C8F2215030407C
:100520004040504068517C4F21153105410551052F
:1005300071F60895789484B5826084BD84B5816035
:1005400084BD85B5826085BD85B5816085BDEEE6DB
:10055000F0E0808181608083E1E8F0E010828081BA
:1005600082608083808181608083E0E8F0E0808128
:1005700081608083E1EBF0E0808184608083E0EB48
:10058000F0E0808181608083EAE7F0E08081846030
:10059000808380818260808380818160808380818C
:1005A000806880831092C1000895CF93DF93482F15
:1005B00050E0CA0186569F4FFC0134914A575F4F65
:1005C000FA018491882369F190E0880F991FFC015A
:1005D000E859FF4FA591B491FC01EE58FF4FC5912A
:1005E000D491662351F42FB7F8948C91932F909562
:1005F00089238C93888189230BC0623061F42FB7E3
:10060000F8948C91932F909589238C938881832BD8
:1006100088832FBF06C09FB7F8948C91832B8C934F
:100620009FBFDF91CF910895482F50E0CA018255B6
:100630009F4FFC012491CA0186569F4FFC01949163
:100640004A575F4FFA013491332309F440C0222303
:1006500051F1233071F0243028F42130A1F0223000
:1006600011F514C02630B1F02730C1F02430D9F490
:1006700004C0809180008F7703C0809180008F7DBF
:100680008093800010C084B58F7702C084B58F7DC1
:1006900084BD09C08091B0008F7703C08091B00005
:1006A0008F7D8093B000E32FF0E0EE0FFF1FEE5838
:1006B000FF4FA591B4912FB7F894662321F48C9144
:1006C0009095892302C08C91892B8C932FBF08951C
:1006D000CF93DF930E949A020E949E00C0E0D0E078
:1006E0000E9497002097E1F30E940000F9CFF89450
:0206F000FFCF3A
:00000001FF
