:100000000C9462000C948A000C948A000C948A0070
:100010000C948A000C948A000C948A000C948A0038
:100020000C948A000C948A000C948A000C948A0028
:100030000C948A000C948A000C948A000C948A0018
:100040000C94D2020C948A000C948A000C948A00BE
:100050000C948A000C948A000C948A000C948A00F8
:100060000C941C030C948A0000000000250028005A
:100070002B000000000023002600290000000008DB
:10008000000201000003040700000000000000005F
:1000900000000000240027002A00010204081020AC
:1000A000408001020408102001020408102004040A
:1000B0000404040404040202020202020303030310
:1000C0000303230B11241FBECFEFD8E0DEBFCDBF4B
:1000D00023E0A8E1B2E001C01D92A937B207E1F721
:1000E00012E0A0E0B1E0ECE1FDE102C005900D926C
:1000F000A831B107D9F710E0C2E6D0E004C02197DB
:10010000FE010E94E30BC136D107C9F70E94FE062B
:100110000C948C0E0C940000CF92DF92EF92FF9221
:100120000F931F93CF93DF936C017A018B01C0E093
:10013000D0E0CE15DF0589F0D8016D918D01D60193
:10014000ED91FC910190F081E02DC6010995892B7C
:1001500011F47E0102C02196ECCFC701DF91CF914F
:100160001F910F91FF90EF90DF90CF900895833013
:1001700081F028F4813099F08230A1F00895873021
:10018000A9F08830B9F08430D1F4809180008F7D5F
:1001900003C0809180008F7780938000089584B59C
:1001A0008F7702C084B58F7D84BD08958091B000A3
:1001B0008F7703C08091B0008F7D8093B000089549
:1001C0008E3008F08E508770806480937C00809120
:1001D0007A00806480937A0080917A0086FDFCCF5B
:1001E000809178002091790090E0922B08953FB79C
:1001F000F8948091640290916502A0916602B0919A
:10020000670226B5A89B05C02F3F19F00196A11DD6
:10021000B11D3FBFBA2FA92F982F8827820F911D9C
:10022000A11DB11DBC01CD0142E0660F771F881FE3
:10023000991F4A95D1F7089585ED8093BC00809170
:10024000BC0084FDFCCF1092F002089540913A0268
:10025000262F30E0240F311D21323105DCF42091AE
:10026000F0022430C9F4FC0180E090E0861758F4D5
:1002700030913A022191DC01A85EBD4FA30FB11D60
:100280002C930196F3CF80913A02680F60933A0263
:1002900080E0089581E0089582E00895089581E066
:1002A00090E03091690220916802321710F480E0EA
:1002B00090E09195819591090895809169029091BE
:1002C0006802891730F48F5F8093690280E090E0C4
:1002D00008958FEF9FEF08958091680290E020913C
:1002E0006902821B91090895CF92DF92EF92FF92EB
:1002F0000F931F93CF93DF937C01262F972F8A01B3
:100300008091F102882391F0C62FD72F6E01C40E81
:10031000D51ECC15DD0571F06991D701ED91FC91E9
:100320000190F081E02DC7010995F3CF642F822F52
:100330000E942601C801DF91CF911F910F91FF907C
:10034000EF90DF90CF900895CF93DF931F92CDB7BA
:10035000DEB769832091F1022223D1F020911403AA
:10036000203240F021E030E0FC013383228380E042
:1003700090E015C08091F202E82FF0E0ED50FD4FC3
:10038000998190838F5F8093F2028093140305C05C
:1003900061E0CE0101960E94260181E090E00F907D
:1003A000DF91CF9108950E942C0E80916A028111F5
:1003B00009C06091250370912603809127039091D5
:1003C000280308C060910001709101018091020131
:1003D000909103010E94CD0C072E000C880B990B05
:1003E0000E94050D4AE00E9451040C940B06CF9325
:1003F000DF93282F30E0F901E458FF4F8491F90191
:10040000E656FF4FD491F901E255FF4FC491CC233A
:1004100091F081110E94B700EC2FF0E0EE0FFF1F6A
:10042000EE58FF4FA591B491EC91ED2381E090E05F
:1004300021F480E002C080E090E0DF91CF91089548
:100440001F93CF93DF93282F30E0F901E458FF4F3B
:100450008491F901E656FF4FD491F901E255FF4F1F
:10046000C491CC23C9F0162F81110E94B700EC2F44
:10047000F0E0EE0FFF1FE859FF4FA591B4918FB741
:10048000F894111105C09C91ED2FE095E92302C06D
:10049000EC91ED2BEC938FBFDF91CF911F910895DD
:1004A000CF93DF9390E0FC01E656FF4F2491FC01CF
:1004B000E255FF4F8491882361F190E0880F991FE6
:1004C000FC01E057FF4FC591D491FC01E859FF4F63
:1004D000A591B491611109C09FB7F89488812095C6
:1004E00082238883EC912E230BC0623061F49FB786
:1004F000F8943881822F809583238883EC912E2B6A
:100500002C939FBF06C08FB7F894E8812E2B2883C9
:100510008FBFDF91CF9108958F929F92AF92BF923C
:10052000CF92DF92EF92FF926B017C010E94F70065
:100530004B015C01C114D104E104F104F1F00E940B
:10054000F700DC01CB0188199909AA09BB09883E8B
:100550009340A105B10570F321E0C21AD108E1086A
:10056000F10888EE880E83E0981EA11CB11CC1140E
:10057000D104E104F10419F7DDCFFF90EF90DF9093
:10058000CF90BF90AF909F908F9008952FB7F89421
:1005900060916002709161028091620290916302A9
:1005A0002FBF08951F920F920FB60F9211242F9311
:1005B0003F938F939F93AF93BF93809160029091ED
:1005C0006102A0916202B091630230915F0223E068
:1005D000230F2D3720F40196A11DB11D05C026E87B
:1005E000230F0296A11DB11D20935F02809360022C
:1005F00090936102A0936202B093630280916402BF
:1006000090916502A0916602B09167020196A11DCA
:10061000B11D8093640290936502A0936602B0932B
:100620006702BF91AF919F918F913F912F910F9052
:100630000FBE0F901F9018951F920F920FB60F923A
:1006400011242F933F934F935F936F937F938F93D7
:100650009F93AF93BF93EF93FF938091B900887FEF
:10066000803609F49CC068F5883209F45BC090F4C8
:10067000803109F454C038F4882309F4F6C0883076
:1006800009F44DC0F6C0883109F44CC0803209F439
:100690005DC0EFC0803409F468C048F4803309F4C9
:1006A00055C0883309F0E5C08093EE02D8C080358C
:1006B00009F44FC0883509F45DC0883409F0D9C009
:1006C000D6C0883909F4C7C0A8F4883709F467C0D0
:1006D00038F4883609F463C0803709F460C0C9C0B3
:1006E000883809F4B8C0803909F45FC0803809F04F
:1006F000C0C05BC0803B09F486C038F4803A09F47E
:1007000066C0883A09F47FC0B4C0803C09F4A7C031
:10071000883C09F4A4C0883B09F48AC0AAC080912F
:10072000CB0210C09091ED028091EC02981770F509
:10073000E091ED0281E08E0F8093ED02F0E0E45352
:10074000FD4F80818093BB0085EC86C08093EE02D4
:100750008EC0E091ED0281E08E0F8093ED028091DA
:10076000BB00F0E0E453FD4F80839091ED02809157
:10077000EC026EC0E091ED0281E08E0F8093ED02FD
:100780008091BB00F0E0E453FD4F80838091EF0245
:1007900081116DC081E08093CA0284EA61C083E068
:1007A0008093F00210925E02CFCF80915E02803281
:1007B00008F051C0E0915E0281E08E0F80935E02EE
:1007C0008091BB00F0E0E25CFD4F8083BDCF85EC03
:1007D0008093BC001092F00280915E02803230F46F
:1007E000E0915E02F0E0E25CFD4F108260915E02FB
:1007F00070E0E0913C02F0913D028EE392E00995B9
:1008000010925E0236C084E08093F00210923B02A8
:1008100010923A02E0913802F091390209958091E4
:100820003A02811105C081E080933A0210921802C9
:10083000E0913B0281E08E0F80933B02F0E0E85EA6
:10084000FD4F80818093BB0090913B0280913A02E2
:10085000981708F479CF85E88093BC000AC085EC2E
:100860008093BC001092F00204C01092EE020E942D
:100870001C01FF91EF91BF91AF919F918F917F915B
:100880006F915F914F913F912F910F900FBE0F90FD
:100890001F9018951EBC00000DB407FEFDCF8EB54D
:1008A00008952F923F924F925F926F927F928F9214
:1008B0009F92AF92BF92CF92DF92EF92FF920F93EF
:1008C0001F93CF93DF93CDB7DEB729970FB6F89478
:1008D000DEBF0FBECDBF4B015C01142F20E030E026
:1008E000A9010E94560C87FF08C0B7FAB094B7F868
:1008F000B0943324339403E002C0312C04E020E0B0
:1009000030E040E05FE3C501B4010E94EA0B0E94C1
:10091000D40C6B017C011E821D8281E090E0A0E07E
:10092000B0E089839A83AB83BC83E02FF0E0412E53
:10093000512C612C712C8D819E818E179F0794F410
:1009400029813A814B815C81C301B2010E94A40BD1
:1009500069837A838B839C83AD81BE811196BE832C
:10096000AD83E9CF412C512CF0E86F2EFFE37F2EB1
:100970001986812F90E0A0E0B0E08D839E83AF8345
:10098000B88789819A81AB81BC81C816D906EA06ED
:10099000FB0610F19985915099876D817E818F8139
:1009A00098850E94050D9B01AC01C301B2010E9414
:1009B0005B0C2B013C019B01AC01C501B4010E9401
:1009C000BA0D20E030E040E05FE30E94EA0B0E94B5
:1009D000D40C6B017C01D5CF20E030E040E85FE330
:1009E000C301B2010E94560C87FF17C080E490E05B
:1009F00090936303809362039093650380936403F1
:100A000010926703109266039093690380936803C2
:100A100090936B0380936A0388C0C114D104E104EE
:100A2000F10409F457C0712CE4E02E2E812E912C94
:100A3000A12CB12CC114D104E104F10409F442C089
:100A40009985992311F081E0791280E0622C2A9433
:100A5000522CA4E0A615D8F0062D10E0000F111FAF
:100A60000E591C4F482E479444244794C701B601A1
:100A7000A50194010E945B0EE62FF0E0E850FE4FC6
:100A80008081482A842D90E0F80191838083F2E0F0
:100A90002F120EC06EEF262E260C84E0851540F036
:100AA000E52DF0E0EE0FFF1FEE59FC4F1182108292
:100AB000C701B601A50194010E945B0E69017A018C
:100AC0007394B8CF9985971508F0BACF822D33204B
:100AD000E9F00BC08FE390E090936B0380936A037F
:100AE000311008C043E0242E11C0E22D2A94853035
:100AF00068F403C032E0232EE3E0F0E0EE0FFF1FC6
:100B0000EE59FC4F80E490E091838083822D87FD35
:100B10000CC0853044F4E82FF0E0EE0FFF1FEE59D3
:100B2000FC4F118210828150F2CF29960FB6F894B3
:100B3000DEBF0FBECDBFDF91CF911F910F91FF9010
:100B4000EF90DF90CF90BF90AF909F908F907F906D
:100B50006F905F904F903F902F90089520911403D5
:100B600090911303213208F04AC08091F002811164
:100B7000FCCF32E03093F00231E03093EF023FEFF0
:100B80003093EE021092ED022093EC02A3EFB2E05C
:100B90004CEC52E0FA013E2F341B321718F43D9111
:100BA0003193F9CF1092CB022091CB02990F922B67
:100BB0009093CB029091CA02913061F41092CA02D4
:100BC0009091CB029093BB009091BC0093FDF8CF25
:100BD00095EC01C095EE9093BC009091F00292309C
:100BE000E1F39091EE029F3F79F08091EE02803226
:100BF00041F08091EE02803331F084E005C081E065
:100C000003C082E001C083E01092F202109214034C
:100C10001092F10208950F931F93CF93DF93809169
:100C2000720391E09093F102809313031092F20209
:100C30001092140360E085E193E00E94A401C2E6F3
:100C4000D3E08E01688185E193E00E94A4012296A1
:100C5000F801618185E193E00E94A401F3E0C237CD
:100C6000DF0779F7DF91CF911F910F910C94AE05BB
:100C7000CF92DF92EF92FF92CF93DF938091740334
:100C800081114EC061E0809177030E94500261E0C3
:100C9000809177030E942002809175038F3F09F0B5
:100CA00034C0CFB7F89480917803811127C0E8EB66
:100CB000F0E08491E4EAF0E09491E82FF0E0EE0FA8
:100CC000FF1FE057FF4FA591B491EC91E92321F468
:100CD00061E08AE00E94200261E08AE00E94500206
:100CE0008CB580618CBD8CB580648CBD61E08DE07D
:100CF0000E94500261E08BE00E94500280917803D4
:100D00008F5F80937803CFBF08C061E00E945002DC
:100D100060E0809176030E94500281E0809374032A
:100D200060E0809177030E94200261E070E080E043
:100D300090E00E948C02809175038F3FF9F480E56A
:100D40008CBD1DBC0E944A04C82ED12CE12CF12C74
:100D5000FE2CED2CDC2CCC240E944A04C82AFE2C4C
:100D6000ED2CDC2CCC240E944A04C82AFE2CED2C4D
:100D7000DC2CCC240E944A04C82A32C060E00E94C5
:100D8000200261E070E080E090E00E948C02C0E20E
:100D9000D0E0C12CD12C760160E0809175030E94D7
:100DA000200261E070E080E090E00E948C02CC0CB8
:100DB000DD1CEE1CFF1C809176030E94F701892B3D
:100DC00011F06894C0F861E0809175030E942002E0
:100DD00061E070E080E090E00E948C022197E1F6F3
:100DE00061E0809177030E942002C701B601DF9184
:100DF000CF91FF90EF90DF90CF900895CF93DF9346
:100E0000CDB7DEB72C970FB6F894DEBF0FBECDBFBF
:100E1000789484B5826084BD84B5816084BD85B5D5
:100E2000826085BD85B5816085BD80916E008160E1
:100E300080936E0010928100809181008260809387
:100E40008100809181008160809381008091800089
:100E50008160809380008091B10084608093B100B4
:100E60008091B00081608093B00080917A008460AE
:100E700080937A0080917A00826080937A008091DA
:100E80007A00816080937A0080917A0080688093F4
:100E90007A001092C10060E083E00E94500260E09E
:100EA00084E00E94500260E085E00E94500285E0EC
:100EB0000E94F7017C0184E00E94F7018C0183E02D
:100EC0000E94F701892B49F490E5E8EAF1E0AFE6EA
:100ED000B2E001900D929A95E1F7012B49F490E56B
:100EE000E8E5F1E0AFE6B2E001900D929A95E1F706
:100EF000EF2849F480E5E8E0F1E0AFE6B2E00190E8
:100F00000D928A95E1F78AE00E94F701019719F4A2
:100F10001092BF0203C081E08093BF0280E78093FC
:100F2000720310926902109268021092F2021092FB
:100F300014031092F00211E01093EF021092CA0213
:100F400061E082E10E94200261E083E10E942002D0
:100F50008091B9008E7F8093B9008091B9008D7F18
:100F60008093B90088E48093B80085E48093BC0046
:100F7000809172031093F102809313031092F20296
:100F80001092140361E285E193E00E94A4010E94A3
:100F9000AE05809172031093F102809313031092B7
:100FA000F2021092140361E885E193E00E94A4012B
:100FB0000E94AE05809172031093F1028093130397
:100FC0001092F202109214036FEE85E193E00E94FA
:100FD000A4010E94AE0561E089E00E94500260E039
:100FE00089E00E94200280916103811148C0E09154
:100FF0004503F0914603C080D180E280F380C09227
:101000004D03D0924E03E0924F03F0925003E091D3
:101010004303F091440380819181A281B381809345
:10102000510390935203A0935303B09354038090C1
:101030005D0390905E03A0905F03B0906003A501F4
:101040009401C701B6010E94B50D181684F0809076
:10105000590390905A03A0905B03B0905C03A501E4
:101060009401C701B6010E94560C87FF08C0809208
:101070004D0390924E03A0924F03B092500381E033
:10108000809361030E94C6020091C6021091C702BC
:101090002091C8023091C902DC01CB01801B910B69
:1010A000A20BB30B893E9340A105B10508F446C0DD
:1010B0000E94C6026093C6027093C7028093C80262
:1010C0009093C90282E00E94F7010197B9F560E0B0
:1010D00089E00E94200281E080936A0282E00E94FF
:1010E000F701892B49F180E10E94E0002EE531E013
:1010F000DC010E94C80B2FEF33E040E050E00E947B
:10110000310E3093C1022093C002B901330F880B16
:10111000990B0E94050D609300017093010180936B
:101120000201909303010E94D50164EF71E080E019
:1011300090E00E948C02D2CF10926A020E94C602F6
:101140000091C2021091C3022091C4023091C502E5
:10115000DC01CB01801B910BA20BB30B893E9340AA
:10116000A105B10560F00E94C6026093C2027093AF
:10117000C3028093C4029093C5020E94D50180E10E
:101180000E94E0002EE531E0DC010E94C80B2FEF49
:1011900033E040E050E00E94310E3093C1022093D2
:1011A000C002B901330F880B990B0E94050D6093A3
:1011B00000017093010180930201909303018091DB
:1011C000BF02882309F477C010926E0210926D025C
:1011D0007AE0E72EF12C8FE00E94E00090936C0201
:1011E00080936B0200916D0210916E02080F191F1F
:1011F00010936E0200936D0260E570E080E090E075
:101200000E948C02F1E0EF1AF10829F7C8016AE0A8
:1012100070E00E94B40BEFE6F2E02FEFE21AF20A60
:10122000448155816417750784F5F701EE0FFF1FA0
:10123000EE0FFF1FE559FD4FA081B181028113819F
:101240009B012A1B3B0BC701880F991F880F991F11
:1012500081599D4FFC0162817381601B710B269F38
:10126000C001279F900D369F900D1124BA016A1B73
:101270007B0B0E94B40BF801E60FF71FEF3FF1055F
:1012800059F054F0EFEFF0E007C0349623E1E21696
:10129000F10419F6E0E0F0E0BF01FF0F880B990BB5
:1012A0000E94050D60932503709326038093270306
:1012B0009093280333C00E9438060E9438068B01A1
:1012C0009C010770112722273327012B022B032BA8
:1012D000D1F422E195958795779567952A95D1F771
:1012E0000E94050D20E030E040E85EE30E94BA0D68
:1012F0008B017C019B01AC010E94270E811103C070
:1013000009871A87170189859A85D101809325035A
:1013100090932603A0932703B09328038091610341
:10132000882309F40BC10E94C60269837A838B83E8
:101330009C838091490390914A03A0914B03B09103
:101340004C0349815A816B817C81481B590B6A0B84
:101350007B0B8091550390915603A0915703B09158
:101360005803481759076A077B0708F4E7C0E0915C
:101370004303F091440380809180A280B380E09188
:101380004703F0914803A501940160817181828136
:1013900093810E94E90B6D837E838F8398872091D0
:1013A000390330913A0340913B0350913C030E9432
:1013B000BA0D20914D0330914E0340914F0350914F
:1013C00050030E94EA0B6B017C0160934D03709304
:1013D0004E0380934F039093500310915D038091CF
:1013E0005E038C8700915F03909160039B87212FA0
:1013F000382F402F592FC701B6010E94B50D18167E
:101400006CF4812F9C85A02FBB8580934D03909316
:101410004E03A0934F03B093500318C0409059035C
:1014200050905A0360905B0370905C03A30192019B
:10143000C701B6010E94560C87FF08C040924D03B9
:1014400050924E0360924F037092500320913503E7
:101450003091360340913703509138036D817E817E
:101460008F8198850E94BA0D20914D0330914E03D3
:1014700040914F03509150030E94EA0B6B017C0195
:1014800020915103309152034091530350915403E2
:10149000C501B4010E94E90B20913D0330913E0348
:1014A00040913F03509140030E94BA0D9B01AC0153
:1014B000C701B6010E94E90B6B017C01212F3C851D
:1014C000402F5B850E94B50D1816C4F0109159038A
:1014D000A0915A03AC8700915B03B0915C03BB877A
:1014E000212F3A2F402F5B2FB601C7010E94560CC7
:1014F00087FD04C01C2DDC860E2DFB86E091450384
:10150000F0914603812F9C85A02FBB85808391831A
:10151000A283B3838092510390925203A09253030B
:10152000B092540389819A81AB81BC818093490335
:1015300090934A03A0934B03B0934C036091210313
:101540007091220380912303909124030E94CD0C7B
:101550006B017C018B0161E089E00E945002C114A3
:10156000D10411F460E004C00F3F110529F461E0DB
:1015700089E00E94200243C0E5E8F0E084918330D6
:10158000F9F048F48130B9F08230A1F584B5806279
:1015900084BDC8BC34C08730E9F0883019F184308C
:1015A00049F580918000806280938000D0928B000A
:1015B000C0928A0024C084B5806884BDC7BC1FC0A7
:1015C00080918000806880938000D0928900C092D2
:1015D000880015C08091B00080688093B000C092F0
:1015E000B3000DC08091B00080628093B000C092C3
:1015F000B40005C0003811050CF0B9CFB3CF20916D
:10160000000130910101409102015091030160916C
:1016100025037091260380912703909128030E944F
:10162000B50D181644F461E089E00E94500260E0B4
:1016300089E00E94200280E090E0892B09F422CD0D
:101640000E9400001FCD0F931F93CF93DF93E5E11E
:10165000F3E01382128288EE93E0A0E0B0E084838E
:101660009583A683B7838CE092E091838083E4E73F
:10167000F3E085E0818383E0838384E082831082CA
:1016800010927303C9E2D3E081E293E09D8F8C8FC7
:1016900085E293E09B8F8A8F80E091E09F8F8E8F11
:1016A00018AE18AA19AA1AAA1BAA80E090E0AFE700
:1016B000B3E48CAB9DABAEABBFAB84E690E0A0E0F7
:1016C000B0E08CA79DA7AEA7BFA7198E188E80E0AB
:1016D00090E0A8ECB3E488839983AA83BB834AE0B3
:1016E00057ED63EA7DE34C835D836E837F83888758
:1016F0009987AA87BB878C879D87AE87BF878FE630
:1017000092E1A3E0BCE3888B998BAA8BBB8B80E032
:1017100090E0AAE7B5E48C8B9D8BAE8BBF8B0E94CB
:10172000C6020CA51DA52EA53FA5DC01CB01801B83
:10173000910BA20BB30B88A399A3AAA3BBA3DF9120
:10174000CF911F910F910895DB018F939F930E947A
:10175000500EBF91AF91A29F800D911DA39F900D40
:10176000B29F900D1124089597FB072E16F4009454
:1017700007D077FD09D00E94CF0B07FC05D03EF4BF
:10178000909581959F4F0895709561957F4F08952D
:101790000E947D0EB7FF0895821B930B0895AA1B2C
:1017A000BB1B51E107C0AA1FBB1FA617B70710F04C
:1017B000A61BB70B881F991F5A95A9F7809590957E
:1017C000BC01CD010895EE0FFF1F0590F491E02DAF
:1017D00009945058BB27AA270E94010C0C947B0D3A
:1017E0000E946D0D38F00E94740D20F039F49F3F77
:1017F00019F426F40C946A0D0EF4E095E7FB0C94B2
:10180000640DE92F0E948C0D58F3BA176207730715
:101810008407950720F079F4A6F50C94AE0D0EF42C
:10182000E0950B2EBA2FA02D0B01B90190010C01F0
:10183000CA01A0011124FF27591B99F0593F50F408
:10184000503E68F11A16F040A22F232F342F442760
:10185000585FF3CF469537952795A795F040539558
:10186000C9F77EF41F16BA0B620B730B840BBAF028
:101870009150A1F0FF0FBB1F661F771F881FC2F793
:101880000EC0BA0F621F731F841F48F487957795A7
:101890006795B795F7959E3F08F0B0CF9395880F61
:1018A00008F09927EE0F9795879508950E94400DAF
:1018B00008F481E008950E946F0C0C947B0D0E9447
:1018C000740D58F00E946D0D40F029F45F3F29F02F
:1018D0000C94640D51110C94AF0D0C946A0D0E9480
:1018E0008C0D68F39923B1F3552391F3951B550B98
:1018F000BB27AA2762177307840738F09F5F5F4FE3
:10190000220F331F441FAA1FA9F335D00E2E3AF021
:10191000E0E832D091505040E695001CCAF72BD039
:10192000FE2F29D0660F771F881FBB1F261737078A
:101930004807AB07B0E809F0BB0B802DBF01FF27BC
:1019400093585F4F3AF09E3F510578F00C94640D28
:101950000C94AF0D5F3FE4F3983ED4F386957795F2
:101960006795B795F7959F5FC9F7880F911D969575
:10197000879597F90895E1E0660F771F881FBB1FD1
:10198000621773078407BA0720F0621B730B840B7E
:10199000BA0BEE1F88F7E09508950E94D40C689466
:1019A000B1110C94AF0D08950E94940D88F09F57CB
:1019B00098F0B92F9927B751B0F0E1F0660F771F73
:1019C000881F991F1AF0BA95C9F714C0B13091F069
:1019D0000E94AE0DB1E008950C94AE0D672F782FE4
:1019E0008827B85F39F0B93FCCF38695779567952E
:1019F000B395D9F73EF490958095709561957F4F9A
:101A00008F4F9F4F0895E89409C097FB3EF490953F
:101A10008095709561957F4F8F4F9F4F9923A9F0C7
:101A2000F92F96E9BB279395F69587957795679556
:101A3000B795F111F8CFFAF4BB0F11F460FF1BC09A
:101A40006F5F7F4F8F4F9F4F16C0882311F096E92D
:101A500011C0772321F09EE8872F762F05C06623DB
:101A600071F096E8862F70E060E02AF09A95660F94
:101A7000771F881FDAF7880F9695879597F908954D
:101A8000990F0008550FAA0BE0E8FEEF161617068F
:101A9000E807F907C0F012161306E407F50798F0F7
:101AA000621B730B840B950B39F40A2661F0232B10
:101AB000242B252B21F408950A2609F4A140A6958C
:101AC0008FEF811D811D089597F99F6780E870E071
:101AD00060E008959FEF80EC089500240A941616A4
:101AE000170618060906089500240A94121613060C
:101AF000140605060895092E0394000C11F488239A
:101B000052F0BB0F40F4BF2B11F460FF04C06F5FB5
:101B10007F4F8F4F9F4F089557FD9058440F551F8B
:101B200059F05F3F71F04795880F97FB991F61F05F
:101B30009F3F79F087950895121613061406551FD6
:101B4000F2CF4695F1DF08C0161617061806991F42
:101B5000F1CF86957105610508940895E894BB2737
:101B600066277727CB0197F908950E94400D08F466
:101B70008FEF08950E94CD0D0C947B0D0E946D0D8A
:101B800038F00E94740D20F0952311F00C94640D30
:101B90000C946A0D11240C94AF0D0E948C0D70F3FF
:101BA000959FC1F3950F50E0551F629FF001729F02
:101BB000BB27F00DB11D639FAA27F00DB11DAA1F11
:101BC000649F6627B00DA11D661F829F2227B00D5E
:101BD000A11D621F739FB00DA11D621F839FA00DE9
:101BE000611D221F749F3327A00D611D231F849F39
:101BF000600D211D822F762F6A2F11249F57504090
:101C00009AF0F1F088234AF0EE0FFF1FBB1F661F0A
:101C1000771F881F91505040A9F79E3F510580F0D3
:101C20000C94640D0C94AF0D5F3FE4F3983ED4F335
:101C3000869577956795B795F795E7959F5FC1F777
:101C4000FE2B880F911D9695879597F908950E9410
:101C5000400D880B990B089581E090E0F8940C9466
:101C60008C0E052E97FB1EF400940E94480E57FD23
:101C700007D00E945B0E07FC03D04EF40C94480E74
:101C800050954095309521953F4F4F4F5F4F0895A8
:101C900090958095709561957F4F8F4F9F4F0895D8
:101CA0000E947D0EA59F900DB49F900DA49F800D66
:101CB000911D11240895A1E21A2EAA1BBB1BFD0140
:101CC0000DC0AA1FBB1FEE1FFF1FA217B307E4071B
:101CD000F50720F0A21BB30BE40BF50B661F771F73
:101CE000881F991F1A9469F7609570958095909553
:101CF0009B01AC01BD01CF010895A29FB001B39F2C
:101D0000C001A39F700D811D1124911DB29F700D04
:0C1D1000811D1124911D0895F894FFCF4F
:101D1C0000003943010000000100A10336000A0154
:101D2C006B00D900A000BE00D500AC000A019E00DB
:101D3C003F01920074018800A9017F00DE01770049
:101D4C0013026F00480267007D026000B202580067
:101D5C00E70250001C03470051033E00860332008B
:101D6C00BB032200F00302000100940336000901BA
:101D7C006B00D800A000BD00D500AB000A019D008F
:101D8C003F01920074018800A9017F00DE017600FA
:101D9C0013026E00480267007D025F00B202580019
:101DAC00E70250001C03470051033E00860332003B
:101DBC00BB032200F0030200010049033600FF00C0
:101DCC006B00D100A000B800D500A6000A01990054
:101DDC003F018E0074018400A9017C00DE017400B7
:101DEC0013026C00480265007D025D00B2025600D1
:101DFC00E7024E001C03460051033D0086033200EF
:101E0C00BB032200F00303003F065B4F666D7D07AA
:101E1C007F6F777C395E797100000000A40174013A
:081E2C006C015D014F014E0144
:00000001FF
