:100000000C9463000C948B000C948B000C948B006C
:100010000C948B000C948B000C948B000C948B0034
:100020000C948B000C948B000C948B000C948B0024
:100030000C948B000C948B000C948B000C948B0014
:100040000C94120C0C948B000C948B000C948B0071
:100050000C948B000C948B000C948B000C948B00F4
:100060000C948B000C948B000000000024002700EF
:100070002A0000000000250028002B0000000000DE
:1000800023002600290004040404040404040202DA
:100090000202020203030303030301020408102007
:1000A0004080010204081020010204081020000012
:1000B0000007000201000003040600000000000029
:1000C00000000309FC0811241FBECFEFD8E0DEBFFB
:1000D000CDBF11E0A0E0B1E0E8E4F5E202C0059098
:1000E0000D92A636B107D9F712E0A6E6B1E001C03D
:1000F0001D92AC32B107E1F710E0C4ECD0E004C0CF
:100100002297FE010E947F12C23CD107C9F70E94CC
:100110004A0E0C9497120C940000CF93DF93BC010D
:100120008230910510F462E070E0A0912A02B09153
:100130002B02ED01E0E0F0E040E050E021C08881DA
:1001400099818617970769F48A819B81309719F006
:100150009383828304C090932B0280932A02FE0132
:1001600034C06817790738F44115510519F0841720
:10017000950708F4AC01FE018A819B819C01E9018D
:100180002097E9F641155105A9F1CA01861B970B85
:10019000049708F4BA01E0E0F0E02AC08D919C9148
:1001A000119784179507F9F46417750781F412966F
:1001B0008D919C911397309719F09383828304C09B
:1001C00090932B0280932A02FD0132964CC0CA0103
:1001D000861B970BFD01E80FF91F6193719302973E
:1001E0008D939C9340C0FD01828193819C01D90134
:1001F0001097A1F68091280290912902892B41F451
:1002000080911C0190911D019093290280932802F6
:1002100040911E0150911F014115510541F44DB708
:100220005EB780911A0190911B01481B590B2091D8
:10023000280230912902CA01821B930B8617970767
:1002400080F0AB014E5F5F4F8417950750F0420F6F
:10025000531F5093290240932802F901619371932F
:1002600002C0E0E0F0E0CF01DF91CF910895CF939D
:10027000DF93009709F450C0EC0122971B821A8289
:10028000A0912A02B0912B02109709F140E050E0B2
:10029000AC17BD0708F1BB83AA83FE012191319100
:1002A000E20FF31FAE17BF0779F48D919C91119760
:1002B000280F391F2E5F3F4F3983288312968D9167
:1002C0009C9113979B838A834115510571F4D093B8
:1002D0002B02C0932A0220C012968D919C911397F5
:1002E000AD01009711F0DC01D3CFFA01D383C283B3
:1002F00021913191E20FF31FCE17DF0769F4888156
:100300009981280F391F2E5F3F4FFA0131832083D7
:100310008A819B8193838283DF91CF910895FB0132
:10032000DC010D900020E9F7119701900D9200205B
:10033000E1F70895FB01DC0101900D920020E1F747
:100340000895FB019F01E8944230C4F04532B4F4B3
:100350004A3029F497FB1EF4909581959F4F642FA6
:1003600077270E948312805D8A330CF0895D819328
:10037000CB010097A1F716F45DE251931082C901F9
:100380000C94C201DC01FC01672F71917723E1F726
:10039000329704C07C916D9370836291AE17BF0752
:1003A000C8F308950F931F938C01FC01848160E0D2
:1003B0000E94A70D81E090E00E94C10CF8018481A9
:1003C00061E00E94A70D81E090E00E94C10CF8015D
:1003D000848160E00E94A70D84E690E00E94C10C39
:1003E0001F910F910895CF92DF92EF92FF920F939A
:1003F0001F93CF93DF93D82EC92E282F392FC901F1
:100400008C01C0E0D0E0E62EFF24F801858161E098
:100410000E94810DB7010C2E02C0759567950A9454
:10042000E2F76170F80185810E94A70D21960F5FA8
:100430001F4FC830D10549F78D2D9C2D0E94D20148
:10044000DF91CF911F910F91FF90EF90DF90CF90B0
:100450000895CF92DF92EF92FF920F931F93CF9365
:10046000DF93D82EC92E282F392FC9018C01C0E067
:10047000D0E0E62EFF24F801858161E00E94810D25
:10048000B7010C2E02C0759567950A94E2F761706A
:10049000F80185810E94A70D21960F5F1F4FC43080
:1004A000D10549F78D2D9C2D0E94D201DF91CF916E
:1004B0001F910F91FF90EF90DF90CF9008951F93C1
:1004C000CF93DF93EC01162F8A81642F0E94A70D32
:1004D0008B818F3F19F060E00E94A70D8D8584FF0E
:1004E00005C0CE01612F0E94F3010EC0612F70E0A4
:1004F00084E0759567958A95E1F7CE010E942902FF
:10050000CE01612F0E942902DF91CF911F910895A2
:1005100041E00E945F02089540E00E945F0208955A
:10052000FC016685862F846086876C60CF010E94FF
:100530008C020895DF93CF93CDB7DEB728970FB61F
:10054000F894DEBF0FBECDBF9C01FE013196ADE534
:10055000B1E088E00D9001928150E1F7F9018189C5
:10056000841710F4482F4150E42FF0E0EE0FFF1FE6
:10057000EC0FFD1F8181680F6068C9010E948C0229
:1005800028960FB6F894DEBF0FBECDBFCF91DF9196
:10059000089561E00E948C0280ED97E00E94C10CFA
:1005A0000895CF93DF93EC01423018F08D85886079
:1005B0008D87498B1A8A222329F0413019F48D85C1
:1005C00084608D8780E593EC0E94C10C8A8160E095
:1005D0000E94A70D8C8160E00E94A70D8B818F3F48
:1005E00019F060E00E94A70D6D8564FD1DC0CE016D
:1005F00063E00E94290284E991E10E94C10CCE01CE
:1006000063E00E94290284E991E10E94C10CCE01BD
:1006100063E00E94290286E990E00E94C10CCE01AD
:1006200062E00E94290216C06062CE010E948C0224
:1006300084E991E10E94C10C6D856062CE010E9447
:100640008C0286E990E00E94C10C6D856062CE014B
:100650000E948C026D856062CE010E948C0284E053
:100660008E87CE010E949002CE010E94C90282E0D4
:100670008F87CE0166E00E948C02DF91CF910895B2
:100680006F927F928F92AF92CF92EF920F931F93C0
:10069000DF93CF93CDB7DEB73C01162F842FF30144
:1006A000428323830483E582C682A78280869D8558
:1006B00091879E8592879F8593879889948761E02B
:1006C0000E94810DF30183818F3F19F061E00E9448
:1006D000810DF301848161E00E94810D112319F0E5
:1006E000F301158603C080E1F3018587C30160E152
:1006F00041E020E00E94D102CF91DF911F910F9144
:10070000EF90CF90AF908F907F906F9008958F92E1
:10071000AF92CF92EF920F931F93CF93DF93DC01B1
:10072000362F542F722F102FAE2C8C2C87E591E092
:1007300011969C938E9300D000D0EDB7FEB7319602
:10074000CDB7DEB71982118212821382CD0161E02A
:10075000432F2FEF052FE72EC12E0E9440030F904D
:100760000F900F900F90DF91CF911F910F91EF900D
:10077000CF90AF908F9008952F923F924F925F92BB
:100780006F927F928F929F92AF92BF92CF92DF92A1
:10079000EF92FF920F931F93DF93CF9300D000D07F
:1007A000CDB7DEB71C0149835A836B837C83480134
:1007B000590126013701CB01BA0120E030E040E0C9
:1007C00050E00E946B1087FD8EC0C501B40120E08F
:1007D00030E040E050E00E946B1087FD84C0C7010C
:1007E000B60120E030E040E050E00E946B1087FD51
:1007F0007AC089819A81AB81BC81F1018083918328
:10080000A283B383D10114968D929D92AD92BC9236
:100810001797C086D186E286F38664A575A58827DA
:1008200077FD8095982F0E940A1120E030E04AE77A
:1008300054E40E946F107B018C0189819A81AB8105
:10084000BC81F10184879587A687B787C501B4016C
:10085000A80197010E94BE115B016C01D101509665
:100860006D937D938D939C935397C301B201A8011F
:1008700097010E946F107B018C01F101648B758BD5
:10088000868B978B808D918D019769F560E070E084
:1008900080E090E029813A814B815C810E940610C2
:1008A000D1011C966D937D938D939C931F9760E06F
:1008B00070E080E090E0A60195010E940610F10131
:1008C000608B718B828B938B60E070E080E090E0B6
:1008D000A80197010E940610D10154966D937D9353
:1008E0008D939C9357970F900F900F900F90CF91EF
:1008F000DF911F910F91FF90EF90DF90CF90BF900D
:10090000AF909F908F907F906F905F904F903F90AF
:100910002F9008954F925F926F927F928F929F9245
:10092000AF92BF92CF92DF92EF92FF920F931F93FD
:10093000CF93DF93EC013A014B0178018901CB01A0
:10094000BA01A80197010E94BA1187FF4EC06EA696
:100950007FA688AA99AAEAAAFBAA0CAB1DAB8EA90E
:10096000882309F442C04C8C5D8CF201A080B180D8
:10097000C280D380C601B501A80197010E94BA11B7
:10098000181634F4F201E082F182028313830DC061
:10099000C601B501A40193010E946B1088232CF4B9
:1009A000F2016082718282829382ACA0BDA0CEA04F
:1009B000DFA0EAA8FBA80CA91DA9C601B501A801E2
:1009C00097010E94BA11181664F0EEA4FFA408A9BA
:1009D00019A9C601B501A80197010E946B108823CF
:1009E00024F4ECA2FDA20EA31FA3DF91CF911F91CF
:1009F0000F91FF90EF90DF90CF90BF90AF909F90BE
:100A00008F907F906F905F904F9008959F92AF92DC
:100A1000BF92CF92DF92EF92FF920F931F93CF93EB
:100A2000DF93EC0199246130710511F499249394BA
:100A30008EA991E08927981681F5EC8DFD8DE080D7
:100A4000F18002811381ECA2FDA20EA31FA3EA8D07
:100A5000FB8D80819181A281B38188A799A7AAA7E4
:100A6000BBA7AAA8BBA8CCA8DDA8C801B701A6014E
:100A700095010E94BA11181664F0AEA4BFA4C8A8CC
:100A8000D9A8C801B701A60195010E946B1088235F
:100A900024F4ACA2BDA2CEA2DFA29EAADF91CF9188
:100AA0001F910F91FF90EF90DF90CF90BF90AF908C
:100AB0009F9008952F923F924F925F926F927F92F4
:100AC0008F929F92AF92BF92CF92DF92EF92FF925E
:100AD0000F931F93DF93CF9300D000D000D0CDB7FA
:100AE000DEB79E838D83DC01D6968C91882309F432
:100AF000D9C00E945A0C69837A838B839C83ED81D1
:100B0000FE8180A191A129813A81281B390B84A5FE
:100B100095A5281739070CF4C5C0028CF38DE02D7C
:100B20002080318042805380AD81BE815E96ED9100
:100B3000FC915F976081718182819381A201910113
:100B40000E9406103B014C01ED81FE812089318914
:100B5000428953890E94BE11AD81BE8194962D9128
:100B60003D914D915C9197970E9407107B018C01FC
:100B7000ED81FE8164A375A386A397A3A2A8B3A861
:100B8000C4A8D5A8A60195010E94BA11181674F040
:100B9000ED81FE81A6A4B7A4C0A8D1A8C801B70161
:100BA000A60195010E946B10882344F4AD81BE819B
:100BB0009496AD92BD92CD92DC929797C401B30109
:100BC000ED81FE8124853585468557850E94BE11BD
:100BD000AD81BE8194962D913D914D915C919797F9
:100BE0000E9407107B018C01C201B101ED81FE81E1
:100BF00020A531A542A553A50E940610AD81BE8156
:100C000054962D913D914D915C9157970E94BE1144
:100C10009B01AC01C801B7010E9406107B018C0149
:100C2000ED81FE81D2A8C3A8B4A8A5A82D2D3C2D86
:100C30004B2D5A2D0E94BA111816BCF0AD81BE8101
:100C40009E96DC909E979F96CC909F97D096BC9056
:100C5000D097D196AC90C801B7012D2D3C2D4B2DCE
:100C60005A2D0E946B10882334F48D2D9C2DAB2DB2
:100C7000BA2D7C018D01AD81BE815C96ED91FC9118
:100C80005D97E082F18202831383FD0120A631A6E5
:100C900042A653A689819A81AB81BC8180A391A38E
:100CA000A2A3B3A326960FB6F894DEBF0FBECDBFA6
:100CB000CF91DF911F910F91FF90EF90DF90CF9038
:100CC000BF90AF909F908F907F906F905F904F906C
:100CD0003F902F9008952F923F924F925F926F9284
:100CE0007F928F929F92AF92BF92CF92DF92EF92BC
:100CF000FF920F931F93DF93CF9300D000D0CDB717
:100D0000DEB74C017A8369831A013C832B83270168
:100D10003801ED8CFE8C40E050E060E070E000E0D7
:100D200010E02FE733E40E948A0484E690E0F401A7
:100D300095A784A786A9882391F1808D918DE816C7
:100D4000F90669F160E070E080E090E02485358587
:100D5000468557850E940610F4016487758786874B
:100D6000978760E070E080E090E0208931894289D7
:100D700053890E940610F401608B718B828B938BD8
:100D800060E070E080E090E02489358946895789E9
:100D90000E940610F401648B758B868B978BF4018F
:100DA000F18EE08EC401B301A20196018501C98CC8
:100DB000DA8CEB8CFC8C0E94BC030E945A0CF40170
:100DC00024A535A5442737FD4095542F621B730B8E
:100DD000840B950B60A371A382A393A316AA358EEF
:100DE000248E89819A81938F828F8B819C81978FAA
:100DF000868F0F900F900F900F90CF91DF911F91E2
:100E00000F91FF90EF90DF90CF90BF90AF909F90A9
:100E10008F907F906F905F904F903F902F900895AC
:100E2000EF92FF920F931F93CF93DF938C01FC01FE
:100E3000808160E00E94A70D62E070E080E090E0B9
:100E40000E94680CF801808161E00E94A70D6CEDA2
:100E500070E080E090E00E94680CF801808160E022
:100E60000E94A70DF801848161E00E94A70D61E056
:100E700070E080E090E00E94680CF801848160E0FE
:100E80000E94A70DEE24FF24CBE0D0E0F80184817E
:100E900061E00E94A70DF80182810E94FB0D0C2EDB
:100EA00002C0880F991F0A94E2F7E80EF91EF801B4
:100EB000848160E00E94A70D2197FFEFCF3FDF07FD
:100EC00029F7F801848161E00E94A70DF801828171
:100ED0000E94FB0DEC01F801848160E00E94A70DE7
:100EE000F801848161E00E94A70D61E070E080E07C
:100EF00090E00E94680CF801848160E00E94A70DD8
:100F0000F801848161E00E94A70D61E070E080E05B
:100F100090E00E94680CF801848160E00E94A70DB7
:100F2000F801808161E00E94A70DF80126813781D8
:100F30002230310501F5B701882777FD8095982F7C
:100F40000E940A1120E030E040E85EE30E94BE11FA
:100F500020E030E040E151E40E94BE1120E030E0AA
:100F600040EA50E40E946F1020E030E040E052E49C
:100F70000E94071013C0B701882777FD8095982F2E
:100F80002130310549F40E940A1120E030E040E8A8
:100F90005EE30E94BE1102C00E940A11E62F692F73
:100FA000CD2B71F0F80160817181709561957F4F53
:100FB000882777FD8095982F0E940A11E62F692FC8
:100FC0002E2F372F482F562FB901CA01DF91CF910D
:100FD0001F910F91FF90EF9008958F929F92AF9283
:100FE000BF92CF92DF92EF92FF920F931F937C01FB
:100FF000D62EA72EC42E952EB22E832E862F61E0DC
:101000000E94810D8C2D60E00E94810D8B2D61E08E
:101010000E94810D8D2D61E00E94A70DF701D08205
:10102000A182C2829382B4828582178306831F9134
:101030000F91FF90EF90DF90CF90BF90AF909F9077
:101040008F9008950F931F938C01FC0180819181F3
:101050000E943701F80113821282158214821F91B7
:101060000F910895AF92BF92CF92DF92EF92FF92CD
:101070000F931F938130910509F0A8C06F5F7F4FD8
:1010800009F0B1C086E691E060E170E04AE050E02E
:101090000E94CA0F8CE691E060E170E04AE050E007
:1010A0000E94CA0F82E791E067E046E025E004E095
:1010B00053E0E52E32E0C32E0E9487036091300199
:1010C00070913101409134015091350120913601E8
:1010D00030913701009138011091390189E991E08F
:1010E0000E94ED076091320170913301409134010B
:1010F000509135012091360130913701009138012E
:101100001091390181EA91E00E94ED0700D000D0F2
:1011100000D0E0903A01F0903B0100913C01109129
:101120003D01A0903E01B0903F01C0904001D090A1
:1011300041018091420190914301A0914401B091FD
:101140004501EDB7FEB781839283A383B4831682F2
:10115000158281EB91E06DE871E049EA51E028E207
:1011600031E00E946B06E0904601F090470100914B
:10117000480110914901A0904A01B0904B01C090E4
:101180004C01D0904D0180914E0190914F01A09162
:101190005001B0915101EDB7FEB781839283A383D3
:1011A000B4831682158288EE91E061E971E04DEA20
:1011B00051E02CE231E00E946B068DB79EB7069697
:1011C0000FB6F8949EBF0FBE8DBF0DC0892B59F48A
:1011D0006F5F7F4F41F48CE691E00E94220886E623
:1011E00091E00E9422081F910F91FF90EF90DF90F5
:1011F000CF90BF90AF90089580E090E06FEF7FEFC9
:101200000E943208089581E090E06FEF7FEF0E9426
:101210003208089588EE91E061E070E00E940605D2
:10122000089581EB91E061E070E00E940605089569
:101230000E9411090E940A09089589E991E00E941B
:10124000100760938D0170938E0180938F019093AE
:10125000900181EA91E00E941007609391017093E0
:101260009201809393019093940108950E941D0927
:1012700088EE91E00E945A056091AD017091AE0137
:101280008091AF019091B0010E94D7109B01AC01F9
:1012900089E0B9010E94280D08950E941D0981EB83
:1012A00091E00E945A056091A9017091AA01809174
:1012B000AB019091AC010E94D7109B01AC0188E07A
:1012C000B9010E94280D08950E944D090E94360917
:1012D0000895CF92DF92EF92FF920F931F93DF93C7
:1012E000CF93CDB7DEB7CC56D0400FB6F894DEBF63
:1012F0000FBECDBF8E010F5F1F4FC80160E071E0D0
:101300000E94A20F86E691E0B8010E94580FC80122
:101310000E9422088E01095F1F4F60918D0170911C
:101320008E0180918F01909190010E94D7109B01B6
:10133000AC01C801B9014AE050E00E94CA0F86E63C
:1013400091E0B8010E94550FC8010E9422088E0149
:10135000035F1F4FC8016FED0E94880F86E691E082
:10136000B8010E94550FC8010E9422088E010D5E2F
:101370001F4FC80163E071E00E94A20F86E691E072
:10138000B8010E94550FC8010E9422088E01075E15
:101390001F4FC80167E071E00E94A20F86E691E04E
:1013A000B8010E94550FC8010E9422088E01015EFB
:1013B0001F4F609128017091290180912A0190911D
:1013C0002B010E94D7109B01AC01C801B9014AE072
:1013D00050E00E94CA0F86E691E0B8010E94550FC6
:1013E000C8010E9422088E010B5D1F4FC8016FEDDE
:1013F0000E94880F86E691E0B8010E94550FC8014F
:101400000E9422088E01055D1F4FC8016AE071E04D
:101410000E94A20F86E691E0B8010E94550FC80114
:101420000E942208F0E1EF2EF12C80916A01909148
:101430006B01E81AF90A00E010E0E1E3CE2ED12CAE
:10144000CC0EDD1E0FC0C6016CE071E00E94A20F41
:1014500086E691E0B6010E94550FC6010E9422085F
:101460000F5F1F4F0E151F0574F382E791E060E0D8
:1014700040E00E949A0282E791E066E671E00E94F5
:10148000900E8E01095C1F4FC8016EE071E00E9452
:10149000A20F8CE691E0B8010E94580FC8010E948B
:1014A00022088E01035C1F4F60919101709192019F
:1014B00080919301909194010E94D7109B01AC01FF
:1014C000C801B9014AE050E00E94CA0F8CE691E0E1
:1014D000B8010E94550FC8010E9422088E010D5BC1
:1014E0001F4FC8016FED0E94880F8CE691E0B80194
:1014F0000E94550FC8010E9422088E01075B1F4FF2
:10150000C80163E071E00E94A20F8CE691E0B8018F
:101510000E94550FC8010E9422088E01015B1F4FD7
:10152000C80167E071E00E94A20F8CE691E0B8016B
:101530000E94550FC8010E9422088E010B5A1F4FAE
:1015400060912C0170912D0180912E0190912F01BD
:101550000E94D7109B01AC01C801B9014AE050E0DC
:101560000E94CA0F8CE691E0B8010E94550FC80195
:101570000E9422088E01055A1F4FC8016FED0E947C
:10158000880F8CE691E0B8010E94550FC8010E94B7
:1015900022088E010F591F4FC8016AE071E00E94B6
:1015A000A20F8CE691E0B8010E94550FC8010E947D
:1015B000220870E1E72EF12C809170019091710169
:1015C000E81AF90A00E010E067E6C62ED12CCC0E2E
:1015D000DD1E0FC0C6016CE071E00E94A20F8CE618
:1015E00091E0B6010E94550FC6010E9422080F5FCC
:1015F0001F4F0E151F0574F382E791E060E041E094
:101600000E949A0282E791E06CE671E00E94900EDF
:10161000C459DF4F0FB6F894DEBF0FBECDBFCF91D8
:10162000DF911F910F91FF90EF90DF90CF90089581
:10163000AF92BF92CF92DF92EF92FF920F931F93E0
:101640000E945A0C209185013091860140918701BA
:1016500050918801621B730B840B950B2091200124
:101660003091210140912201509123012617370723
:101670004807590708F07DC00E945A0C6093850105
:1016800070938601809387019093880181E10E9485
:10169000060D909396018093950100D000D0AA2763
:1016A00097FDA095BA2F2EE531E040E050E0EDB770
:1016B000FEB72183328343835483BC01CD0120E0F4
:1016C00030E040E050E0AFEFEA2EA3E0FA2E012D2B
:1016D000112DAA24BB2465010E94BA0E70939601B5
:1016E00060939501882777FD8095982F0E940A11B5
:1016F000609328017093290180932A0190932B0114
:101700000F900F900F900F9082E10E94060D909322
:1017100098018093970100D000D0AA2797FDA0954B
:10172000BA2F2FEF30E040E050E0EDB7FEB7218355
:10173000328343835483BC01CD0120E030E040E09C
:1017400050E00E94BA0E7093980160939701882729
:1017500077FD8095982F0E940A1160932C01709359
:101760002D0180932E0190932F010F900F900F90D9
:101770000F900E945A0C2091890130918A0140916A
:101780008B0150918C01621B730B840B950B209184
:1017900024013091250140912601509127012617FF
:1017A00037074807590770F40E945A0C6093890163
:1017B00070938A0180938B0190938C010E94690938
:1017C0000E9464091F910F91FF90EF90DF90CF90DE
:1017D000BF90AF9008950F931F9388E061E00E943F
:1017E000810D88E060E00E94A70D89E061E00E9421
:1017F000810D89E060E00E94A70D0E94180902E7B0
:1018000011E0C80160E142E020E00E94D102C8017D
:101810000E94C902C80161E171E00E94880E1F9117
:101820000F9108951F920F920FB60F9211242F93CC
:101830003F938F939F93AF93BF9380912302909197
:101840002402A0912502B091260230912702019630
:10185000A11DB11D232F2D5F2D3720F02D5701968F
:10186000A11DB11D2093270280932302909324028F
:10187000A0932502B093260280911F02909120022E
:10188000A0912102B09122020196A11DB11D809369
:101890001F0290932002A0932102B0932202BF91D5
:1018A000AF919F918F913F912F910F900FBE0F900D
:1018B0001F9018958FB7F89420912302309124023D
:1018C00040912502509126028FBFB901CA010895A7
:1018D0009B01AC017FB7F89480911F029091200288
:1018E000A0912102B091220266B5A89B05C06F3F6E
:1018F00019F00196A11DB11D7FBFBA2FA92F982FF6
:101900008827860F911DA11DB11D62E0880F991FC8
:10191000AA1FBB1F6A95D1F7BC012DC0FFB7F89471
:1019200080911F0290912002A0912102B091220289
:10193000E6B5A89B05C0EF3F19F00196A11DB11DAA
:10194000FFBFBA2FA92F982F88278E0F911DA11D99
:10195000B11DE2E0880F991FAA1FBB1FEA95D1F7BE
:10196000861B970B885E9340C8F221503040404060
:10197000504068517C4F211531054105510571F6E4
:101980000895019739F0880F991F880F991F0297C2
:101990000197F1F70895789484B5826084BD84B589
:1019A000816084BD85B5826085BD85B5816085BD5A
:1019B000EEE6F0E0808181608083E1E8F0E0108273
:1019C000808182608083808181608083E0E8F0E0B4
:1019D000808181608083E1EBF0E08081846080839E
:1019E000E0EBF0E0808181608083EAE7F0E08081D5
:1019F0008460808380818260808380818160808335
:101A00008081806880831092C1000895982F8E3065
:101A100008F09E509770809152018295880F880F30
:101A2000807C892B80937C0080917A0080648093F5
:101A30007A0080917A0086FDFCCF20917800409159
:101A40007900942F80E030E0282B392BC9010895CC
:101A50001F93CF93DF93182FEB0161E00E94810D5C
:101A6000E12FF0E0E255FF4F8491833051F48091F3
:101A70008000806880938000D0938900C0938800A4
:101A80003CC0843051F4809180008062809380005B
:101A9000D0938B00C0938A0030C0813039F42097F6
:101AA00029F184B5806884BDC7BD27C0823039F470
:101AB0002097E1F084B5806284BDC8BD1EC0863029
:101AC00041F48091B00080688093B000C093B3006F
:101AD00014C0873041F48091B00080628093B000E0
:101AE000C093B4000AC0C038D1051CF4812F60E057
:101AF00002C0812F61E00E94A70DDF91CF911F915D
:101B00000895482F50E0CA0186569F4FFC0124914A
:101B10004A575F4FFA0184918823C1F0E82FF0E023
:101B2000EE0FFF1FE859FF4FA591B491662341F4D2
:101B30009FB7F8948C91209582238C939FBF089532
:101B40009FB7F8948C91822B8C939FBF0895482F58
:101B500050E0CA0182559F4FFC012491CA0186566C
:101B60009F4FFC0134914A575F4FFA01949199239A
:101B700009F440C0222331F1233021F48091800008
:101B80008F7705C0243031F4809180008F7D809361
:101B9000800018C0213019F484B58F7704C022303A
:101BA00021F484B58F7D84BD0DC0263021F4809151
:101BB000B0008F7705C0273029F48091B0008F7D69
:101BC0008093B000E92FF0E0EE0FFF1FEE58FF4FBB
:101BD000A591B491662341F49FB7F8948C91309508
:101BE00083238C939FBF08959FB7F8948C91832B88
:101BF0008C939FBF0895682F70E0CB0182559F4F53
:101C0000FC012491CB0186569F4FFC0144916A57F9
:101C10007F4FFB019491992319F420E030E038C004
:101C2000222331F1233021F4809180008F7705C089
:101C3000243031F4809180008F7D8093800018C023
:101C4000213019F484B58F7704C0223021F484B593
:101C50008F7D84BD0DC0263021F48091B0008F7738
:101C600005C0273029F48091B0008F7D8093B000AB
:101C7000892F90E0880F991F84589F4FFC01A591F0
:101C8000B4918C9120E030E0842311F021E030E029
:101C9000C90108950E94CB0C0E94EB0B0E94180B07
:101CA000FDCF0F931F93CF93DF938C01EB0109C0FE
:101CB0002196D801ED91FC910190F081E02DC801B1
:101CC000099568816623A1F7DF91CF911F910F914C
:101CD0000895EF92FF920F931F93CF93DF938C01A0
:101CE0007B01EA010CC0D7016D917D01D801ED9116
:101CF000FC910190F081E02DC80109952197209772
:101D000091F7DF91CF911F910F91FF90EF90089580
:101D1000DC01ED91FC910280F381E02D099508959D
:101D2000CF92DF92EF92FF920F931F93CF93DF93A7
:101D30006C017B01C0E0D0E00EC0D601ED91FC91BA
:101D400000811181C701BE010E94030F682FC601E7
:101D5000F80109952196F70184819581C817D90763
:101D600060F3DF91CF911F910F91FF90EF90DF9083
:101D7000CF9008952F923F924F925F926F927F92F1
:101D80008F929F92AF92BF92CF92DF92EF92FF928B
:101D90000F931F93DF93CF93CDB7DEB73B014C0179
:101DA00019012A016D897E898F89988D6A197B09AD
:101DB0008C099D09621A730A840A950AA401930189
:101DC0000E942112E218F30804091509A8019701DD
:101DD0000E9462122A0D3B1D4C1D5D1DB901CA01F6
:101DE000CF91DF911F910F91FF90EF90DF90CF90F7
:101DF000BF90AF909F908F907F906F905F904F902B
:101E00003F902F900895FC010190F081E02DE60FA6
:101E1000F71F80810895CF93DF93EC01CB017B8383
:101E20006A8301960E948D0099838883009721F42C
:101E30001B821A821D821C82DF91CF910895EF923E
:101E4000FF920F931F93CF93DF93EC017B01FB0174
:101E5000648175818C819D81680F791F7D836C837E
:101E60008A819B818617970778F408811981CE01B2
:101E70000E940B0F88819981009719F0B8010E9488
:101E80009A01C8010E94370188819981009729F041
:101E9000F701608171810E948F01CE01DF91CF91A6
:101EA0001F910F91FF90EF9008950E941F0F0895CA
:101EB0000F931F93CF93DF93EC018B018617970746
:101EC00009F1FB01248135818C819D818217930763
:101ED00050F4888199810E943701F80164817581ED
:101EE000CE010E940B0F288139812115310551F057
:101EF000F801848195819D838C8360817181C90102
:101F00000E949A01CE01DF91CF911F910F91089508
:101F10001F93CF93DF93EC01162F81E090E09D8318
:101F20008C83CE0161E070E00E940B0FE881F981A3
:101F3000309721F01083E881F9811182DF91CF91F0
:101F40001F9108950F931F93CF93DF938C01EB01A3
:101F50006115710511F4C9E1D1E0FE010190002085
:101F6000E9F73197EC1BFD0BD8011596FC93EE9326
:101F70001497C801BF010E940B0FF8018081918165
:101F8000009719F0BE010E949A01DF91CF911F9135
:101F90000F910895EF92FF920F931F93DF93CF93CA
:101FA000CDB7DEB7A1970FB6F894DEBF0FBECDBF99
:101FB0008C01CB017E010894E11CF11CB7010E9449
:101FC000A101F70101900020E9F73197EE19FF090F
:101FD000D8011596FC93EE931497C801BF010E9497
:101FE0000B0FF80180819181009719F0B7010E94D1
:101FF0009A01A1960FB6F894DEBF0FBECDBFCF9168
:10200000DF911F910F91FF90EF9008955058BB27DB
:10201000AA270ED075C166D130F06BD120F031F413
:102020009F3F11F41EF45BC10EF4E095E7FB51C134
:10203000E92F77D180F3BA176207730784079507F2
:1020400018F071F49EF58FC10EF4E0950B2EBA2FA7
:10205000A02D0B01B90190010C01CA01A0011124AE
:10206000FF27591B99F0593F50F4503E68F11A165A
:10207000F040A22F232F342F4427585FF3CF4695EB
:1020800037952795A795F0405395C9F77EF41F160D
:10209000BA0B620B730B840BBAF09150A1F0FF0FD7
:1020A000BB1F661F771F881FC2F70EC0BA0F621FC3
:1020B000731F841F48F4879577956795B795F795B3
:1020C0009E3F08F0B3CF9395880F08F09927EE0F45
:1020D000979587950895D9D008F481E008950CD09C
:1020E0000FC107D140F0FED030F021F45F3F19F06E
:1020F000F0C0511139C1F3C014D198F39923C9F339
:102100005523B1F3951B550BBB27AA2762177307FD
:10211000840738F09F5F5F4F220F331F441FAA1FB1
:10212000A9F333D00E2E3AF0E0E830D09150504071
:10213000E695001CCAF729D0FE2F27D0660F771F1F
:10214000881FBB1F261737074807AB07B0E809F001
:10215000BB0B802DBF01FF2793585F4F2AF09E3F96
:10216000510568F0B6C000C15F3FECF3983EDCF368
:10217000869577956795B795F7959F5FC9F7880F0F
:10218000911D9695879597F90895E1E0660F771F61
:10219000881FBB1F621773078407BA0720F0621BF2
:1021A000730B840BBA0BEE1F88F7E095089504D0EB
:1021B0006894B111D9C00895BCD088F09F5790F0B1
:1021C000B92F9927B751A0F0D1F0660F771F881F5C
:1021D000991F1AF0BA95C9F712C0B13081F0C3D077
:1021E000B1E00895C0C0672F782F8827B85F39F015
:1021F000B93FCCF3869577956795B395D9F73EF4BB
:1022000090958095709561957F4F8F4F9F4F089562
:10221000E89409C097FB3EF4909580957095619580
:102220007F4F8F4F9F4F9923A9F0F92F96E9BB2736
:102230009395F695879577956795B795F111F8CFB2
:10224000FAF4BB0F11F460FF1BC06F5F7F4F8F4F1D
:102250009F4F16C0882311F096E911C0772321F013
:102260009EE8872F762F05C0662371F096E8862FAB
:1022700070E060E02AF09A95660F771F881FDAF702
:10228000880F9695879597F90895990F0008550F2F
:10229000AA0BE0E8FEEF16161706E807F907C0F0EC
:1022A00012161306E407F50798F0621B730B840BF4
:1022B000950B39F40A2661F0232B242B252B21F4CE
:1022C00008950A2609F4A140A6958FEF811D811D6E
:1022D000089597F99F6780E870E060E008959FEFA8
:1022E00080EC089500240A941616170618060906AD
:1022F000089500240A94121613061406050608957C
:10230000092E0394000C11F4882352F0BB0F40F403
:10231000BF2B11F460FF04C06F5F7F4F8F4F9F4F43
:10232000089557FD9058440F551F59F05F3F71F0C5
:102330004795880F97FB991F61F09F3F79F087952C
:102340000895121613061406551FF2CF4695F1DFB5
:1023500008C0161617061806991FF1CF8695710545
:10236000610508940895E894BB2766277727CB0179
:1023700097F908958ADF08F48FEF08950BD0C0CF46
:10238000B1DF28F0B6DF18F0952309F0A2CFA7CF70
:102390001124EACFC6DFA0F3959FD1F3950F50E04B
:1023A000551F629FF001729FBB27F00DB11D639F07
:1023B000AA27F00DB11DAA1F649F6627B00DA11DAD
:1023C000661F829F2227B00DA11D621F739FB00D53
:1023D000A11D621F839FA00D611D221F749F3327C3
:1023E000A00D611D231F849F600D211D822F762F5C
:1023F0006A2F11249F5750408AF0E1F088234AF059
:10240000EE0FFF1FBB1F661F771F881F91505040A4
:10241000A9F79E3F510570F05CCFA6CF5F3FECF36C
:10242000983EDCF3869577956795B795F795E79590
:102430009F5FC1F7FE2B880F911D9695879597F9A1
:102440000895629FD001739FF001829FE00DF11DFE
:10245000649FE00DF11D929FF00D839FF00D749F1E
:10246000F00D659FF00D9927729FB00DE11DF91FCA
:10247000639FB00DE11DF91FBD01CF011124089527
:10248000A1E21A2EAA1BBB1BFD010DC0AA1FBB1F78
:10249000EE1FFF1FA217B307E407F50720F0A21BEA
:1024A000B30BE40BF50B661F771F881F991F1A9457
:1024B00069F760957095809590959B01AC01BD0181
:1024C000CF01089597FB092E05260ED057FD04D0A5
:1024D000D7DF0AD0001C38F45095409530952195EF
:1024E0003F4F4F4F5F4F0895F6F790958095709549
:1024F00061957F4F8F4F9F4F0895EE0FFF1F0590FF
:10250000F491E02D0994AA1BBB1B51E107C0AA1F3F
:10251000BB1FA617B70710F0A61BB70B881F991F84
:102520005A95A9F780959095BC01CD01089510E0CA
:10253000C4ECD0E004C0FE010E947F122296C63C8B
:08254000D107C9F7F894FFCFA1
:102548004E3A0043202000533A0043002000423A0C
:1025580000676E65786C6162000020002C02000044
:10256800F4010000F4010000000039430000964225
:102578000B000A000C000D0001000000C8430AD738
:10258800A33D0000C8430000C8430AD7A33D00008C
:10259800C84301000000008802510E690E00004087
:0625A800001400540000C5
:00000001FF
