:100000000C9463000C948B000C948B000C948B006C
:100010000C948B000C948B000C948B000C948B0034
:100020000C948B000C948B000C948B000C948B0024
:100030000C948B000C948B000C948B000C948B0014
:100040000C94290B0C948B000C948B000C948B005B
:100050000C948B000C948B000C948B000C948B00F4
:100060000C948B000C948B000000000024002700EF
:100070002A0000000000250028002B0000000000DE
:1000800023002600290004040404040404040202DA
:100090000202020203030303030301020408102007
:1000A0004080010204081020010204081020000012
:1000B0000007000201000003040600000000000029
:1000C00000004C03450311241FBECFEFD8E0DEBF74
:1000D000CDBF11E0A0E0B1E0EEE7F3E202C0059091
:1000E0000D92A83AB107D9F712E0A8EAB1E001C031
:1000F0001D92A236B107E1F710E0C4ECD0E004C0D5
:100100002297FE010E947711C23CD107C9F70E94D5
:10011000C00C0C94B2110C940000CF93DF93BC017F
:100120008230910510F462E070E0A0916002B0911D
:100130006102ED01E0E0F0E040E050E021C08881A4
:1001400099818617970769F48A819B81309719F006
:100150009383828304C09093610280936002FE01C6
:1001600034C06817790738F44115510519F0841720
:10017000950708F4AC01FE018A819B819C01E9018D
:100180002097E9F641155105A9F1CA01861B970B85
:10019000049708F4BA01E0E0F0E02AC08D919C9148
:1001A000119784179507F9F46417750781F412966F
:1001B0008D919C911397309719F09383828304C09B
:1001C0009093610280936002FD0132964CC0CA0197
:1001D000861B970BFD01E80FF91F6193719302973E
:1001E0008D939C9340C0FD01828193819C01D90134
:1001F0001097A1F680915E0290915F02892B41F4E5
:1002000080911B0190911C0190935F0280935E028C
:1002100040911D0150911E014115510541F44DB70A
:100220005EB78091190190911A01481B590B2091DA
:100230005E0230915F02CA01821B930B86179707FB
:1002400080F0AB014E5F5F4F8417950750F0420F6F
:10025000531F50935F0240935E02F90161937193C3
:1002600002C0E0E0F0E0CF01DF91CF910895CF939D
:10027000DF93009709F450C0EC0122971B821A8289
:10028000A0916002B0916102109709F140E050E046
:10029000AC17BD0708F1BB83AA83FE012191319100
:1002A000E20FF31FAE17BF0779F48D919C91119760
:1002B000280F391F2E5F3F4F3983288312968D9167
:1002C0009C9113979B838A834115510571F4D093B8
:1002D0006102C093600220C012968D919C91139789
:1002E000AD01009711F0DC01D3CFFA01D383C283B3
:1002F00021913191E20FF31FCE17DF0769F4888156
:100300009981280F391F2E5F3F4FFA0131832083D7
:100310008A819B8193838283DF91CF910895A0E0AE
:10032000B0E0E5E9F1E00C947D116C01009729F44F
:10033000CB010E948D006C01C1C08EEF882E8FEF23
:10034000982E8C0C9D1C8601060F171F0815190589
:1003500008F4B2C0F401A081B181A617B707B8F0C4
:10036000A530B10508F4AAC0CD01049786179707F8
:1003700008F4A4C01297A61BB70BF801A193B19380
:10038000D4016D937C93CF010E94370197C07B010C
:10039000EA1AFB0AEEEFFFEFEE0EFF1E36016A0EC1
:1003A0007B1EC0916002D091610244245524AA248E
:1003B000BB244AC0C615D705E1F5488159814E15C1
:1003C0005F05B8F1CA0104978E159F05B0F4129627
:1003D000A40FB51FF401B183A0832A813B8141148E
:1003E000510431F0D20113963C932E93129766C0BC
:1003F000309361022093600261C08A819B81F80181
:1004000093838283425050404E195F095183408349
:100410004114510431F0D20113961C930E9312979C
:1004200004C01093610200936002F4017183608341
:1004300045C088819981A816B90608F45C012E018F
:100440008A819B819C01E901209709F0B3CF8091BB
:100450005E0290915F0286159705E9F4A616B7062D
:10046000D0F420911D0130911E012115310541F478
:100470002DB73EB78091190190911A01281B390BB5
:1004800002171307C8F410935F0200935E02D401B1
:100490006D937C9313C0CB010E948D00EC010097FB
:1004A00059F0F40140815181B6010E946402C601F5
:1004B0000E9437016E0102C0CC24DD24C601CDB7F5
:1004C000DEB7E0E10C949911FB01DC0102C0019060
:1004D0000D9241505040D8F70895FB01DC01019086
:1004E0000D920020E1F70895FB019F01E89442304E
:1004F000C4F04532B4F44A3029F497FB1EF49095C9
:1005000081959F4F642F77270E946111805D8A3308
:100510000CF0895D8193CB010097A1F716F45DE2A1
:1005200051931082C9010C949502DC01FC01672FE4
:1005300071917723E1F7329704C07C916D937083BA
:100540006291AE17BF07C8F30895AF92BF92CF92E2
:10055000DF92EF92FF920F931F938130910509F084
:100560007EC06F5F7F4F09F087C088EA91E060E14D
:1005700070E04AE00E94A00E8FEA91E060E170E036
:100580004AE00E94A00E86EB91E06CE04BE025E093
:1005900004E053E0E52E32E0C32E0E94900700D025
:1005A00000D000D0E0902F01F09030010091310197
:1005B00010913201A0903301B0903401C090350108
:1005C000D09036018091370190913801A091390186
:1005D000B0913A01EDB7FEB781839283A383B483D0
:1005E0001682158287EE91E063ED71E04FED51E0E8
:1005F00027E231E00E94840AE0903B01F0903C0148
:1006000000913D0110913E01A0903F01B09040014A
:10061000C0904101D09042018091430190914401EA
:10062000A0914501B0914601EDB7FEB78183928359
:10063000A383B483168215828EE192E067ED71E0A8
:1006400043EE51E02BE231E00E94840A8DB79EB761
:1006500006960FB6F8949EBF0FBE8DBF0DC0892BB6
:1006600059F46F5F7F4F41F48FEA91E00E94D10E01
:1006700088EA91E00E94D10E1F910F91FF90EF90B8
:10068000DF90CF90BF90AF90089580E090E06FEF43
:100690007FEF0E94A502089581E090E06FEF7FEF69
:1006A0000E94A5020895CF93DF930E94C40BAC0172
:1006B000EBE4F1E0C1E0D0E06081718146175707BB
:1006C0008CF5FE013197EE0FFF1FEE0FFF1FDF01CC
:1006D000A95BBE4F2D913C91E75BFE4F0190F081ED
:1006E000E02D421B530BCC0FDD1FCC0FDD1FC75B72
:1006F000DE4F888199818E1B9F0B621B730B9C01BF
:10070000429FC001439F900D529F900D11240E9463
:1007100011116E0F7F1F6F3F710559F054F06FEF8D
:1007200070E007C021963496C431D10529F660E007
:1007300070E0CB01DF91CF9108958FE090E00E94AF
:100740005303AA2797FDA095BA2FBC01CD010E94A3
:10075000DB0F6093D3017093D4018093D501909304
:10076000D6018EE090E00E945303AA2797FDA09542
:10077000BA2FBC01CD010E94DB0F6093D7017093AB
:10078000D8018093D9019093DA0108950E949D03C6
:100790008EE192E00E9467096091E3017091E401AB
:1007A0008091E5019091E6010E94A80F9B01AC01A8
:1007B00089E0B9010E94E60B08950E949D0387EE2F
:1007C00091E00E9467096091DF017091E0018091E2
:1007D000E1019091E2010E94A80F9B01AC018AE027
:1007E000B9010E94E60B08950E94DD030E94C60332
:1007F00008958EE192E061E070E00E94130908958F
:1008000087EE91E061E070E00E94130908950E9474
:1008100000040E94F90308950F931F93CF93DF9371
:1008200088EA91E060E071E00E94870E6091D30158
:100830007091D4018091D5019091D6010E94A80FAA
:100840009B01AC0188EA91E0B9010E94000E88EAA0
:1008500091E062EB0E94310E88EA91E063E071E082
:100860000E94440E88EA91E067E071E00E94440E25
:1008700060912701709128018091290190912A01AE
:100880000E94A80F9B01AC0188EA91E0B9010E9487
:10089000000E88EA91E062EB0E94310E88EA91E056
:1008A0006AE071E00E94440E00E110E08091AC012A
:1008B0009091AD01081B190BC0E0D0E007C088EA99
:1008C00091E06CE071E00E94440E2196C017D107C0
:1008D000B4F386EB91E060E040E00E94A30686EB73
:1008E00091E068EA71E00E94100D8FEA91E06EE0FD
:1008F00071E00E94870E6091D7017091D8018091BC
:10090000D9019091DA010E94A80F9B01AC018FEAF6
:1009100091E0B9010E94000E8FEA91E062EB0E9423
:10092000310E8FEA91E063E071E00E94440E8FEA9D
:1009300091E067E071E00E94440E60912B0170919C
:100940002C0180912D0190912E010E94A80F9B01F6
:10095000AC018FEA91E0B9010E94000E8FEA91E0AC
:1009600062EB0E94310E8FEA91E06AE071E00E9432
:10097000440E00E110E08091B3019091B401081B96
:10098000190BC0E0D0E007C08FEA91E06CE071E0A5
:100990000E94440E2196C017D107B4F386EB91E074
:1009A00060E041E00E94A30686EB91E06FEA71E00F
:1009B0000E94100DDF91CF911F910F910895AF927A
:1009C000BF92CF92DF92EF92FF920F931F930E94FC
:1009D000710B2091CB013091CC014091CD01509110
:1009E000CE01621B730B840B950B20911F0130917C
:1009F0002001409121015091220126173707480715
:100A0000590708F07DC00E94710B6093CB01709371
:100A1000CC018093CD019093CE0181E10E94C40B63
:100A20009093DC018093DB0100D000D0AA2797FDD2
:100A3000A095BA2F2EE531E040E050E0EDB7FEB7CB
:100A40002183328343835483BC01CD0120E030E015
:100A500040E050E0EFEFEE2EE3E0FE2E012D112DF1
:100A6000AA24BB2465010E94430D7093DC016093AE
:100A7000DB01882777FD8095982F0E94DB0F60931C
:100A80002701709328018093290190932A010F90E8
:100A90000F900F900F9082E10E94C40B9093DE01A3
:100AA0008093DD0100D000D0AA2797FDA095BA2F32
:100AB0002FEF30E040E050E0EDB7FEB72183328306
:100AC00043835483BC01CD0120E030E040E050E09E
:100AD0000E94430D7093DE016093DD01882777FD4E
:100AE0008095982F0E94DB0F60932B0170932C014F
:100AF00080932D0190932E010F900F900F900F90E7
:100B00000E94710B2091CF013091D0014091D10111
:100B10005091D201621B730B840B950B2091230122
:100B20003091240140912501509126012617370765
:100B30004807590770F40E94710B6093CF017093BE
:100B4000D0018093D1019093D2010E940C040E94A5
:100B5000F4031F910F91FF90EF90DF90CF90BF9023
:100B6000AF9008950F931F938AE061E00E94460CB6
:100B70008AE060E00E946C0C89E061E00E94460C13
:100B800089E060E00E946C0C0E94070406EB11E013
:100B9000C80160E142E020E00E94DA06C8010E943C
:100BA000D206C80161E171E00E940D0D1F910F9105
:100BB00008950F931F938C01FC01868160E00E94D1
:100BC0006C0C81E090E00E947F0BF801868161E06F
:100BD0000E946C0C81E090E00E947F0BF8018681FE
:100BE00060E00E946C0C84E690E00E947F0B1F91F5
:100BF0000F910895CF92DF92EF92FF920F931F9380
:100C0000CF93DF93D82EC92E282F392FC9018C01FD
:100C1000C0E0D0E0E62EFF24F801878161E00E9469
:100C2000460CB7010C2E02C0759567950A94E2F741
:100C30006170F80187810E946C0C21960F5F1F4F35
:100C4000C830D10549F78D2D9C2D0E94D905DF9123
:100C5000CF911F910F91FF90EF90DF90CF9008956B
:100C6000CF92DF92EF92FF920F931F93CF93DF9378
:100C7000D82EC92E282F392FC9018C01C0E0D0E011
:100C8000E62EFF24F801878161E00E94460CB7013F
:100C90000C2E02C0759567950A94E2F76170F80111
:100CA00087810E946C0C21960F5F1F4FC430D105C5
:100CB00049F78D2D9C2D0E94D905DF91CF911F9171
:100CC0000F91FF90EF90DF90CF9008951F93CF93F7
:100CD000DF93EC01162F8C81642F0E946C0C8D81A8
:100CE0008F3F19F060E00E946C0C8F8584FF05C077
:100CF000CE01612F0E94FA050EC0612F70E084E0E2
:100D0000759567958A95E1F7CE010E943006CE0170
:100D1000612F0E943006DF91CF911F91089541E02D
:100D20000E94660681E090E0089540E00E94660619
:100D30000895FC016089862F8460808B6C60CF01F0
:100D40000E9495060895DF93CF93CDB7DEB728971D
:100D50000FB6F894DEBF0FBECDBF9C01FE013196E9
:100D6000A0EAB1E088E00D9001928150E1F7F9012D
:100D70008389481710F0482F4150E42FF0E0EE0F20
:100D8000FF1FEC0FFD1F8181680F6068C9010E9481
:100D9000950628960FB6F894DEBF0FBECDBFCF9153
:100DA000DF91089561E00E94950680ED97E00E9432
:100DB0007F0B0895CF93DF93EC01423018F08F85BD
:100DC00088608F874B8B1C8A222329F0413019F4CD
:100DD0008F8584608F8780E593EC0E947F0B8C81E8
:100DE00060E00E946C0C8E8160E00E946C0C8D8132
:100DF0008F3F19F060E00E946C0C6F8564FD1DC090
:100E0000CE0163E00E94300684E991E10E947F0BED
:100E1000CE0163E00E94300684E991E10E947F0BDD
:100E2000CE0163E00E94300686E990E00E947F0BCD
:100E3000CE0162E00E94300616C06062CE010E94C0
:100E4000950684E991E10E947F0B6F856062CE0177
:100E50000E94950686E990E00E947F0B6F85606294
:100E6000CE010E9495066F856062CE010E949506B4
:100E700084E0888BCE010E949906CE010E94D206A2
:100E800082E0898BCE0166E00E949506DF91CF91CA
:100E900008956F927F928F92AF92CF92EF920F93BD
:100EA0001F93DF93CF93CDB7DEB73C01162F842F6E
:100EB000F301448325830683E782C086A186828668
:100EC0009D8593879E8594879F859587988996872A
:100ED00061E00E94460CF30185818F3F19F061E0CB
:100EE0000E94460CF301868161E00E94460C1123AA
:100EF00019F0F301178603C080E1F3018787C3016E
:100F000060E141E020E00E94DA06CF91DF911F917D
:100F10000F91EF90CF90AF908F907F906F9008954A
:100F20008F92AF92CF92EF920F931F93CF93DF9355
:100F3000DC01362F542F722F102FAE2C8C2C1396D1
:100F40001C921E9212978CE991E011969C938E93BD
:100F500000D000D0EDB7FEB73196CDB7DEB719821D
:100F6000118212821382CD0161E0432F2FEF052FF2
:100F7000E72EC12E0E9449070F900F900F900F90FF
:100F8000DF91CF911F910F91EF90CF90AF908F9005
:100F900008952F923F924F925F926F927F928F921D
:100FA0009F92AF92BF92CF92DF92EF92FF920F93F8
:100FB0001F93DF93CF9300D000D0CDB7DEB71C01D5
:100FC00049835A836B837C83480159012601370189
:100FD000CB01BA0120E030E040E050E00E943C0F3D
:100FE00087FD8EC0C501B40120E030E040E050E054
:100FF0000E943C0F87FD84C0C701B60120E030E0AD
:1010000040E050E00E943C0F87FD7AC089819A81C0
:10101000AB81BC81F10180839183A283B383D10131
:1010200014968D929D92AD92BC921797C086D186F0
:10103000E286F38664A575A5882777FD8095982FAD
:101040000E94DB0F20E030E04AE754E40E94400FAA
:101050007B018C0189819A81AB81BC81F1018487FC
:101060009587A687B787C501B401A80197010E949B
:101070008F105B016C01D10150966D937D938D9320
:101080009C935397C301B201A80197010E94400F9E
:101090007B018C01F101648B758B868B978B808D26
:1010A000918D019769F560E070E080E090E0298122
:1010B0003A814B815C810E94D70ED1011C966D93C1
:1010C0007D938D939C931F9760E070E080E090E0AB
:1010D000A60195010E94D70EF101608B718B828B66
:1010E000938B60E070E080E090E0A80197010E949F
:1010F000D70ED10154966D937D938D939C93579702
:101100000F900F900F900F90CF91DF911F910F9143
:10111000FF90EF90DF90CF90BF90AF909F908F9017
:101120007F906F905F904F903F902F9008954F92D7
:101130005F926F927F928F929F92AF92BF92CF9267
:10114000DF92EF92FF920F931F93CF93DF93EC0107
:101150003A014B0178018901CB01BA01A80197013D
:101160000E948B1087FF4EC06EA67FA688AA99AA00
:10117000EAAAFBAA0CAB1DAB8EA9882309F442C0D6
:101180004C8C5D8CF201A080B180C280D380C601FE
:10119000B501A80197010E948B10181634F4F201D2
:1011A000E082F182028313830DC0C601B501A40160
:1011B00093010E943C0F88232CF4F201608271821B
:1011C00082829382ACA0BDA0CEA0DFA0EAA8FBA83B
:1011D0000CA91DA9C601B501A80197010E948B1099
:1011E000181664F0EEA4FFA408A919A9C601B50158
:1011F000A80197010E943C0F882324F4ECA2FDA2D1
:101200000EA31FA3DF91CF911F910F91FF90EF903D
:10121000DF90CF90BF90AF909F908F907F906F9016
:101220005F904F9008959F92AF92BF92CF92DF92BE
:10123000EF92FF920F931F93CF93DF93EC019924CA
:101240006130710511F4992493948EA991E0892756
:10125000981681F5EC8DFD8DE080F180028113817F
:10126000ECA2FDA20EA31FA3EA8DFB8D80819181CC
:10127000A281B38188A799A7AAA7BBA7AAA8BBA840
:10128000CCA8DDA8C801B701A60195010E948B106A
:10129000181664F0AEA4BFA4C8A8D9A8C801B701A5
:1012A000A60195010E943C0F882324F4ACA2BDA2A4
:1012B000CEA2DFA29EAADF91CF911F910F91FF9046
:1012C000EF90DF90CF90BF90AF909F9008952F92B6
:1012D0003F924F925F926F927F928F929F92AF92C6
:1012E000BF92CF92DF92EF92FF920F931F93DF9303
:1012F000CF9300D000D000D0CDB7DEB79E838D83D2
:10130000DC01D6968C91882309F4E5C00E94710B0C
:1013100069837A838B839C83ED81FE8180A191A177
:10132000A2A1B3A129813A814B815C81281B390B91
:101330004A0B5B0B84A595A5AA2797FDA095BA2F0C
:10134000281739074A075B0708F4C5C0028CF38DDC
:10135000E02D2080318042805380AD81BE815E9639
:10136000ED91FC915F976081718182819381A201EF
:1013700091010E94D70E3B014C01ED81FE81208935
:101380003189428953890E948F10AD81BE81949624
:101390002D913D914D915C9197970E94D80E7B01C4
:1013A0008C01ED81FE8164A375A386A397A3A2A8F7
:1013B000B3A8C4A8D5A8A60195010E948B10181641
:1013C00074F0ED81FE81A6A4B7A4C0A8D1A8C8017D
:1013D000B701A60195010E943C0F882344F4AD811A
:1013E000BE819496AD92BD92CD92DC929797C40146
:1013F000B301ED81FE8124853585468557850E94A0
:101400008F10AD81BE8194962D913D914D915C914F
:1014100097970E94D80E7B018C01C201B101ED812A
:10142000FE8120A531A542A553A50E94D70EAD810E
:10143000BE8154962D913D914D915C9157970E949C
:101440008F109B01AC01C801B7010E94D70E7B0130
:101450008C01ED81FE81D2A8C3A8B4A8A5A82D2D2A
:101460003C2D4B2D5A2D0E948B101816BCF0AD81CF
:10147000BE819E96DC909E979F96CC909F97D0962B
:10148000BC90D097D196AC90C801B7012D2D3C2DC2
:101490004B2D5A2D0E943C0F882334F48D2D9C2D0A
:1014A000AB2DBA2D7C018D01AD81BE815C96ED9195
:1014B000FC915D97E082F18202831383FD0120A6F7
:1014C00031A642A653A689819A81AB81BC8180A3B3
:1014D00091A3A2A3B3A326960FB6F894DEBF0FBEC6
:1014E000CDBFCF91DF911F910F91FF90EF90DF90D3
:1014F000CF90BF90AF909F908F907F906F905F90B4
:101500004F903F902F9008952F923F924F925F926D
:101510006F927F928F929F92AF92BF92CF92DF9203
:10152000EF92FF920F931F93DF93CF9300D000D0E1
:10153000CDB7DEB74C017A8369831A013C832B83D4
:1015400027013801ED8CFE8C40E050E060E070E057
:1015500000E010E02FE733E40E94970884E690E073
:10156000F40195A784A786A9882391F1808D918D98
:10157000E816F90669F160E070E080E090E024850B
:101580003585468557850E94D70EF4016487758797
:101590008687978760E070E080E090E0208931895D
:1015A000428953890E94D70EF401608B718B828B24
:1015B000938B60E070E080E090E024893589468973
:1015C00057890E94D70EF401648B758B868B978B9D
:1015D000F401F18EE08EC401B301A20196018501F0
:1015E000C98CDA8CEB8CFC8C0E94C9070E94710BB1
:1015F000F40124A535A5442737FD4095542F621BDF
:10160000730B840B950B60A371A382A393A316AAFB
:10161000358E248E89819A81938F828F8B819C81D4
:10162000978F868F0F900F900F900F90CF91DF9133
:101630001F910F91FF90EF90DF90CF90BF90AF90F0
:101640009F908F907F906F905F904F903F902F90E2
:1016500008951F920F920FB60F9211242F933F936C
:101660008F939F93AF93BF938091590290915A02A9
:10167000A0915B02B0915C0230915D020196A11DC8
:10168000B11D232F2D5F2D3720F02D570196A11D61
:10169000B11D20935D028093590290935A02A0934A
:1016A0005B02B0935C028091550290915602A0912A
:1016B0005702B09158020196A11DB11D80935502A9
:1016C00090935602A0935702B0935802BF91AF91E6
:1016D0009F918F913F912F910F900FBE0F901F9070
:1016E00018958FB7F8942091590230915A02409181
:1016F0005B0250915C028FBFB901CA010895019746
:1017000039F0880F991F880F991F02970197F1F7F9
:101710000895789484B5826084BD84B5816084BD69
:1017200085B5826085BD85B5816085BDEEE6F0E05A
:10173000808181608083E1E8F0E0108280818260B6
:101740008083808181608083E0E8F0E08081816037
:101750008083E1EBF0E0808184608083E0EBF0E067
:10176000808181608083EAE7F0E08081846080830B
:1017700080818260808380818160808380818068B5
:1017800080831092C1000895982F8E3008F09E50EB
:101790009770809197018295880F880F807C892BA4
:1017A00080937C0080917A00806480937A0080919D
:1017B0007A0086FDFCCF2091780040917900942F2B
:1017C00080E030E0282B392BC90108951F93CF9377
:1017D000DF93182FEB0161E00E94460C209709F47B
:1017E0004AC0CF3FD10509F449C0E12FF0E0E255EE
:1017F000FF4F84918330C1F0843028F4813051F060
:101800008230B1F50CC0863019F1873049F184304F
:1018100079F514C084B5806884BDC7BD33C084B574
:10182000806284BDC8BD2EC0809180008068809396
:101830008000D0938900C093880024C080918000EC
:10184000806280938000D0938B00C0938A001AC07E
:101850008091B00080688093B000C093B30012C044
:101860008091B00080628093B000C093B4000AC041
:10187000C038D1051CF4812F60E002C0812F61E0E7
:101880000E946C0CDF91CF911F910895482F50E07A
:10189000CA0186569F4FFC0124914A575F4FFA01B7
:1018A00084918823C1F0E82FF0E0EE0FFF1FE85984
:1018B000FF4FA591B491662341F49FB7F8948C91A2
:1018C000209582238C939FBF08959FB7F8948C91A5
:1018D000822B8C939FBF0895482F50E0CA018255F8
:1018E0009F4FFC012491CA0186569F4FFC019491A1
:1018F0004A575F4FFA013491332309F440C0222341
:1019000051F1233071F0243028F42130A1F022303D
:1019100011F514C02630B1F02730C1F02430D9F4CD
:1019200004C0809180008F7703C0809180008F7DFC
:101930008093800010C084B58F7702C084B58F7DFE
:1019400084BD09C08091B0008F7703C08091B00042
:101950008F7D8093B000E32FF0E0EE0FFF1FEE5875
:10196000FF4FA591B4912FB7F894662321F48C9181
:101970009095892302C08C91892B8C932FBF089559
:10198000CF93DF930E94890B0E94B205C0E0D0E0A4
:101990000E94DF042097E1F30E940000F9CFCF926C
:1019A000DF92EF92FF920F931F93CF93DF937C010F
:1019B0006B018A01C0E0D0E00FC0D6016D916D01CE
:1019C000D701ED91FC910190F081E02DC7010995BF
:1019D000C80FD91F015010400115110571F7CE0134
:1019E000DF91CF911F910F91FF90EF90DF90CF90FB
:1019F0000895CF93DF93DB010D900020E9F7119755
:101A0000A61BB70BEC01E881F9810280F381E02D80
:101A1000AD010995DF91CF9108950E94F90C0895C9
:101A2000AF92BF92CF92DF92EF92FF920F931F93EC
:101A3000CF93DF935C016B01EE24FF24C0E0D0E084
:101A400010C0D501ED91FC9100811181C601BE014C
:101A50000E948C0D682FC501F8010995E80EF91E4A
:101A60002196F60184819581C817D90750F3C701E3
:101A7000DF91CF911F910F91FF90EF90DF90CF906A
:101A8000BF90AF9008952F923F924F925F926F92C6
:101A90007F928F929F92AF92BF92CF92DF92EF92FE
:101AA000FF920F931F93DF93CF93CDB7DEB73B0128
:101AB0004C0119012A016D897E898F89988D6A19D7
:101AC0007B098C099D09621A730A840A950AA4018C
:101AD00093010E94F210E218F30804091509A80105
:101AE00097010E9446112A0D3B1D4C1D5D1DB90139
:101AF000CA01CF91DF911F910F91FF90EF90DF907E
:101B0000CF90BF90AF909F908F907F906F905F909D
:101B10004F903F902F900895FC0184819581681724
:101B2000790748F40190F081E02D309721F0E60F1D
:101B3000F71F8081089580E008950F931F93CF933E
:101B4000DF93EC018B016F5F7F4F888199810E9449
:101B50008F01009711F480E005C0998388831B836F
:101B60000A8381E0DF91CF911F910F910895CF9368
:101B7000DF93EC0188819981892B29F08A819B81EF
:101B80008617970760F4CE010E949D0D882341F0CF
:101B90008C819D81892B19F4E881F981108281E083
:101BA000DF91CF910895EF92FF920F931F93CF9300
:101BB000DF93EC017B016C817D81E114F104C1F0C4
:101BC0004115510599F08A01060F171FB8010E94AF
:101BD000B70D882369F0888199812C813D81820F1E
:101BE000931FB7010E946D021D830C8381E001C029
:101BF00080E0DF91CF911F910F91FF90EF900895BA
:101C0000EF92FF920F931F93DF93CF93CDB7DEB781
:101C100027970FB6F894DEBF0FBECDBF7C01CB0176
:101C20008E010F5F1F4FB8014AE050E00E9474021E
:101C3000F80101900020E9F73197E01BF10BC70193
:101C4000B801AF010E94D30D27960FB6F894DEBFFE
:101C50000FBECDBFCF91DF911F910F91FF90EF90FD
:101C60000895DF93CF9300D0CDB7DEB769831A8292
:101C7000BE016F5F7F4F41E050E00E94D30D0F9097
:101C80000F90CF91DF9108956115710511F480E0F7
:101C90000895DB010D900020E9F71197A61BB70B03
:101CA000AD010E94D30D0895CF93DF93EC0188819D
:101CB0009981009711F00E943701198218821D82C4
:101CC0001C821B821A82DF91CF910895EF92FF92BE
:101CD0000F931F93CF93DF93EC017B018A01BA012D
:101CE0000E94B70D882321F4CE010E94540E07C034
:101CF0001D830C8388819981B7010E946D02CE01FA
:101D0000DF91CF911F910F91FF90EF9008950F9366
:101D10001F93182F092F6115710559F0DB010D90E4
:101D20000020E9F71197A61BB70BAD010E94660EC4
:101D300002C00E94540E812F902F1F910F91089581
:101D4000EF92FF920F931F93DF93CF93CDB7DEB740
:101D500062970FB6F894DEBF0FBECDBF8C01CB01EA
:101D6000F801118210821382128215821482168267
:101D70007E010894E11CF11CB70150E00E9474023E
:101D8000C801B7010E94870E62960FB6F894DEBFB5
:101D90000FBECDBFCF91DF911F910F91FF90EF90BC
:101DA0000895FC01808191810E9437010895505867
:101DB000BB27AA270ED075C166D130F06BD120F0B9
:101DC00031F49F3F11F41EF45BC10EF4E095E7FB84
:101DD00051C1E92F77D180F3BA17620773078407DF
:101DE000950718F071F49EF58FC10EF4E0950B2E57
:101DF000BA2FA02D0B01B90190010C01CA01A0015D
:101E00001124FF27591B99F0593F50F4503E68F1B7
:101E10001A16F040A22F232F342F4427585FF3CFF8
:101E2000469537952795A795F0405395C9F77EF4C9
:101E30001F16BA0B620B730B840BBAF09150A1F012
:101E4000FF0FBB1F661F771F881FC2F70EC0BA0F98
:101E5000621F731F841F48F4879577956795B79520
:101E6000F7959E3F08F0B3CF9395880F08F0992718
:101E7000EE0F979587950895D9D008F481E00895DD
:101E80000CD00FC107D140F0FED030F021F45F3FFD
:101E900019F0F0C0511139C1F3C014D198F399234E
:101EA000C9F35523B1F3951B550BBB27AA2762171E
:101EB0007307840738F09F5F5F4F220F331F441F63
:101EC000AA1FA9F333D00E2E3AF0E0E830D091509B
:101ED0005040E695001CCAF729D0FE2F27D0660F88
:101EE000771F881FBB1F261737074807AB07B0E8C7
:101EF00009F0BB0B802DBF01FF2793585F4F2AF0DD
:101F00009E3F510568F0B6C000C15F3FECF3983EBC
:101F1000DCF3869577956795B795F7959F5FC9F739
:101F2000880F911D9695879597F90895E1E0660FC2
:101F3000771F881FBB1F621773078407BA0720F03B
:101F4000621B730B840BBA0BEE1F88F7E0950895A4
:101F500004D06894B111D9C00895BCD088F09F57BF
:101F600090F0B92F9927B751A0F0D1F0660F771FE5
:101F7000881F991F1AF0BA95C9F712C0B13081F0C5
:101F8000C3D0B1E00895C0C0672F782F8827B85F0D
:101F900039F0B93FCCF3869577956795B395D9F726
:101FA0003EF490958095709561957F4F8F4F9F4F30
:101FB0000895E89409C097FB3EF49095809570953C
:101FC00061957F4F8F4F9F4F9923A9F0F92F96E985
:101FD000BB279395F695879577956795B795F111FA
:101FE000F8CFFAF4BB0F11F460FF1BC06F5F7F4F97
:101FF0008F4F9F4F16C0882311F096E911C07723A9
:1020000021F09EE8872F762F05C0662371F096E8B1
:10201000862F70E060E02AF09A95660F771F881F80
:10202000DAF7880F9695879597F90895990F000824
:10203000550FAA0BE0E8FEEF16161706E807F9079A
:10204000C0F012161306E407F50798F0621B730B35
:10205000840B950B39F40A2661F0232B242B252BB6
:1020600021F408950A2609F4A140A6958FEF811D59
:10207000811D089597F99F6780E870E060E00895FA
:102080009FEF80EC089500240A9416161706180690
:102090000906089500240A9412161306140605066C
:1020A0000895092E0394000C11F4882352F0BB0FFD
:1020B00040F4BF2B11F460FF04C06F5F7F4F8F4F60
:1020C0009F4F089557FD9058440F551F59F05F3F9B
:1020D00071F04795880F97FB991F61F09F3F79F04A
:1020E00087950895121613061406551FF2CF4695CC
:1020F000F1DF08C0161617061806991FF1CF86954E
:102100007105610508940895E894BB276627772731
:10211000CB0197F908958ADF08F48FEF08950BD06B
:10212000C0CFB1DF28F0B6DF18F0952309F0A2CFB9
:10213000A7CF1124EACFC6DFA0F3959FD1F3950F67
:1021400050E0551F629FF001729FBB27F00DB11D3B
:10215000639FAA27F00DB11DAA1F649F6627B00DCB
:10216000A11D661F829F2227B00DA11D621F739FB4
:10217000B00DA11D621F839FA00D611D221F749FC2
:102180003327A00D611D231F849F600D211D822F09
:10219000762F6A2F11249F5750408AF0E1F0882350
:1021A0004AF0EE0FFF1FBB1F661F771F881F91505D
:1021B0005040A9F79E3F510570F05CCFA6CF5F3F1E
:1021C000ECF3983EDCF3869577956795B795F79590
:1021D000E7959F5FC1F7FE2B880F911D9695879518
:1021E00097F90895629FD001739FF001829FE00DDF
:1021F000F11D649FE00DF11D929FF00D839FF00D86
:10220000749FF00D659FF00D9927729FB00DE11D31
:10221000F91F639FB00DE11DF91FBD01CF0111240E
:10222000089597FB092E07260AD077FD04D049D0E0
:1022300006D000201AF4709561957F4F0895F6F747
:10224000909581959F4F0895A1E21A2EAA1BBB1B62
:10225000FD010DC0AA1FBB1FEE1FFF1FA217B30772
:10226000E407F50720F0A21BB30BE40BF50B661F88
:10227000771F881F991F1A9469F76095709580954C
:1022800090959B01AC01BD01CF01089597FB092EEC
:1022900005260ED057FD04D0D7DF0AD0001C38F435
:1022A00050954095309521953F4F4F4F5F4F089582
:1022B000F6F790958095709561957F4F8F4F9F4F62
:1022C0000895AA1BBB1B51E107C0AA1FBB1FA6177D
:1022D000B70710F0A61BB70B881F991F5A95A9F7CF
:1022E00080959095BC01CD010895EE0FFF1F0590DC
:1022F000F491E02D09942F923F924F925F926F924A
:102300007F928F929F92AF92BF92CF92DF92EF9285
:10231000FF920F931F93CF93DF93CDB7DEB7CA1B06
:10232000DB0B0FB6F894DEBF0FBECDBF09942A8831
:10233000398848885F846E847D848C849B84AA84D9
:10234000B984C884DF80EE80FD800C811B81AA8166
:10235000B981CE0FD11D0FB6F894DEBF0FBECDBF31
:10236000ED01089510E0C4ECD0E004C0FE010E942D
:0E23700077112296C63CD107C9F7F894FFCF2B
:10237E004E3A0043202000533A0043002000423AD8
:10238E0000676E65786C616200200062020000F4E6
:10239E00010000F4010000000039430000964200E5
:1023AE0000C8430AD7A33D0000C8430000C8430A33
:1023BE00D7A33D0000C843010049033600FF006B60
:1023CE0000D100A000B800D500A6000A0199003F78
:1023DE00018E0074018400A9017C00DE01740013DB
:1023EE00026C00480265007D025D00B2025600E7F5
:1023FE00024E001C03460051033D0086033200BB13
:10240E00032200F003030001000000008F06CF0C32
:08241E0000004000140054000E
:00000001FF
